{
    "contractName": "TellorLotteryPool",
    "abi": [
        {
            "inputs": [
                {
                    "internalType": "address",
                    "name": "_lotteryContract",
                    "type": "address"
                },
                {
                    "internalType": "address",
                    "name": "_tellor",
                    "type": "address"
                },
                {
                    "internalType": "uint256",
                    "name": "_poolNumber",
                    "type": "uint256"
                },
                {
                    "internalType": "string",
                    "name": "_name",
                    "type": "string"
                },
                {
                    "internalType": "string",
                    "name": "_symbol",
                    "type": "string"
                }
            ],
            "stateMutability": "nonpayable",
            "type": "constructor"
        },
        {
            "anonymous": false,
            "inputs": [
                {
                    "indexed": true,
                    "internalType": "address",
                    "name": "owner",
                    "type": "address"
                },
                {
                    "indexed": true,
                    "internalType": "address",
                    "name": "spender",
                    "type": "address"
                },
                {
                    "indexed": false,
                    "internalType": "uint256",
                    "name": "value",
                    "type": "uint256"
                }
            ],
            "name": "Approval",
            "type": "event"
        },
        {
            "anonymous": false,
            "inputs": [
                {
                    "indexed": true,
                    "internalType": "address",
                    "name": "from",
                    "type": "address"
                },
                {
                    "indexed": true,
                    "internalType": "address",
                    "name": "to",
                    "type": "address"
                },
                {
                    "indexed": false,
                    "internalType": "uint256",
                    "name": "value",
                    "type": "uint256"
                }
            ],
            "name": "Transfer",
            "type": "event"
        },
        {
            "anonymous": false,
            "inputs": [
                {
                    "indexed": false,
                    "internalType": "uint32",
                    "name": "poolNumber",
                    "type": "uint32"
                },
                {
                    "indexed": false,
                    "internalType": "uint256",
                    "name": "staked",
                    "type": "uint256"
                },
                {
                    "indexed": false,
                    "internalType": "uint256",
                    "name": "value",
                    "type": "uint256"
                }
            ],
            "name": "poolUpdate",
            "type": "event"
        },
        {
            "anonymous": false,
            "inputs": [
                {
                    "indexed": false,
                    "internalType": "uint256",
                    "name": "_amount",
                    "type": "uint256"
                }
            ],
            "name": "staked",
            "type": "event"
        },
        {
            "inputs": [
                {
                    "internalType": "address",
                    "name": "owner",
                    "type": "address"
                },
                {
                    "internalType": "address",
                    "name": "spender",
                    "type": "address"
                }
            ],
            "name": "allowance",
            "outputs": [
                {
                    "internalType": "uint256",
                    "name": "",
                    "type": "uint256"
                }
            ],
            "stateMutability": "view",
            "type": "function"
        },
        {
            "inputs": [
                {
                    "internalType": "address",
                    "name": "spender",
                    "type": "address"
                },
                {
                    "internalType": "uint256",
                    "name": "amount",
                    "type": "uint256"
                }
            ],
            "name": "approve",
            "outputs": [
                {
                    "internalType": "bool",
                    "name": "",
                    "type": "bool"
                }
            ],
            "stateMutability": "nonpayable",
            "type": "function"
        },
        {
            "inputs": [
                {
                    "internalType": "address",
                    "name": "account",
                    "type": "address"
                }
            ],
            "name": "balanceOf",
            "outputs": [
                {
                    "internalType": "uint256",
                    "name": "",
                    "type": "uint256"
                }
            ],
            "stateMutability": "view",
            "type": "function"
        },
        {
            "inputs": [],
            "name": "currentStaked",
            "outputs": [
                {
                    "internalType": "uint256",
                    "name": "",
                    "type": "uint256"
                }
            ],
            "stateMutability": "view",
            "type": "function"
        },
        {
            "inputs": [],
            "name": "decimals",
            "outputs": [
                {
                    "internalType": "uint8",
                    "name": "",
                    "type": "uint8"
                }
            ],
            "stateMutability": "view",
            "type": "function"
        },
        {
            "inputs": [
                {
                    "internalType": "address",
                    "name": "spender",
                    "type": "address"
                },
                {
                    "internalType": "uint256",
                    "name": "subtractedValue",
                    "type": "uint256"
                }
            ],
            "name": "decreaseAllowance",
            "outputs": [
                {
                    "internalType": "bool",
                    "name": "",
                    "type": "bool"
                }
            ],
            "stateMutability": "nonpayable",
            "type": "function"
        },
        {
            "inputs": [],
            "name": "harvest",
            "outputs": [
                {
                    "internalType": "bool",
                    "name": "_success",
                    "type": "bool"
                }
            ],
            "stateMutability": "nonpayable",
            "type": "function"
        },
        {
            "inputs": [
                {
                    "internalType": "address",
                    "name": "spender",
                    "type": "address"
                },
                {
                    "internalType": "uint256",
                    "name": "addedValue",
                    "type": "uint256"
                }
            ],
            "name": "increaseAllowance",
            "outputs": [
                {
                    "internalType": "bool",
                    "name": "",
                    "type": "bool"
                }
            ],
            "stateMutability": "nonpayable",
            "type": "function"
        },
        {
            "inputs": [
                {
                    "internalType": "address",
                    "name": "receiver",
                    "type": "address"
                }
            ],
            "name": "mint",
            "outputs": [],
            "stateMutability": "nonpayable",
            "type": "function"
        },
        {
            "inputs": [],
            "name": "name",
            "outputs": [
                {
                    "internalType": "string",
                    "name": "",
                    "type": "string"
                }
            ],
            "stateMutability": "view",
            "type": "function"
        },
        {
            "inputs": [
                {
                    "internalType": "uint256",
                    "name": "_amount",
                    "type": "uint256"
                }
            ],
            "name": "stake",
            "outputs": [],
            "stateMutability": "nonpayable",
            "type": "function"
        },
        {
            "inputs": [],
            "name": "symbol",
            "outputs": [
                {
                    "internalType": "string",
                    "name": "",
                    "type": "string"
                }
            ],
            "stateMutability": "view",
            "type": "function"
        },
        {
            "inputs": [],
            "name": "totalSupply",
            "outputs": [
                {
                    "internalType": "uint256",
                    "name": "",
                    "type": "uint256"
                }
            ],
            "stateMutability": "view",
            "type": "function"
        },
        {
            "inputs": [
                {
                    "internalType": "address",
                    "name": "recipient",
                    "type": "address"
                },
                {
                    "internalType": "uint256",
                    "name": "amount",
                    "type": "uint256"
                }
            ],
            "name": "transfer",
            "outputs": [
                {
                    "internalType": "bool",
                    "name": "",
                    "type": "bool"
                }
            ],
            "stateMutability": "nonpayable",
            "type": "function"
        },
        {
            "inputs": [
                {
                    "internalType": "address",
                    "name": "sender",
                    "type": "address"
                },
                {
                    "internalType": "address",
                    "name": "recipient",
                    "type": "address"
                },
                {
                    "internalType": "uint256",
                    "name": "amount",
                    "type": "uint256"
                }
            ],
            "name": "transferFrom",
            "outputs": [
                {
                    "internalType": "bool",
                    "name": "",
                    "type": "bool"
                }
            ],
            "stateMutability": "nonpayable",
            "type": "function"
        },
        {
            "inputs": [
                {
                    "internalType": "uint256",
                    "name": "_amount",
                    "type": "uint256"
                }
            ],
            "name": "unstake",
            "outputs": [],
            "stateMutability": "nonpayable",
            "type": "function"
        },
        {
            "inputs": [],
            "name": "updatePool",
            "outputs": [],
            "stateMutability": "nonpayable",
            "type": "function"
        },
        {
            "inputs": [],
            "name": "viewHarvest",
            "outputs": [
                {
                    "internalType": "uint256[25]",
                    "name": "_poolNumbers",
                    "type": "uint256[25]"
                },
                {
                    "internalType": "uint256[25]",
                    "name": "_amount",
                    "type": "uint256[25]"
                }
            ],
            "stateMutability": "view",
            "type": "function"
        },
        {
            "inputs": [],
            "name": "viewStake",
            "outputs": [
                {
                    "internalType": "uint256",
                    "name": "_poolNumber",
                    "type": "uint256"
                },
                {
                    "internalType": "uint256",
                    "name": "_amount",
                    "type": "uint256"
                }
            ],
            "stateMutability": "view",
            "type": "function"
        }
    ],
    "bytecode": "6080604052670de0b6b3a7640000600b553480156200001d57600080fd5b506040516200184d3803806200184d833981810160405260a08110156200004357600080fd5b8151602083015160408085015160608601805192519496939591949391820192846401000000008211156200007757600080fd5b9083019060208201858111156200008d57600080fd5b8251640100000000811182820188101715620000a857600080fd5b82525081516020918201929091019080838360005b83811015620000d7578181015183820152602001620000bd565b50505050905090810190601f168015620001055780820380516001836020036101000a031916815260200191505b50604052602001805160405193929190846401000000008211156200012957600080fd5b9083019060208201858111156200013f57600080fd5b82516401000000008111828201881017156200015a57600080fd5b82525081516020918201929091019080838360005b83811015620001895781810151838201526020016200016f565b50505050905090810190601f168015620001b75780820380516001836020036101000a031916815260200191505b50604052505082518391508290620001d790600390602085019062000259565b508051620001ed90600490602084019062000259565b505060058054600680546001600160a01b0319166001600160a01b03998a16179055601260ff1990911617610100600160a81b031916610100969097169590950295909517909355506009805463ffffffff191663ffffffff9290921691909117905550620002fe9050565b828054600181600116156101000203166002900490600052602060002090601f016020900481019282601f106200029c57805160ff1916838001178555620002cc565b82800160010185558215620002cc579182015b82811115620002cc578251825591602001919060010190620002af565b50620002da929150620002de565b5090565b620002fb91905b80821115620002da5760008155600101620002e5565b90565b61153f806200030e6000396000f3fe608060405234801561001057600080fd5b50600436106101215760003560e01c8063695464e9116100ad578063a67f324a11610071578063a67f324a1461034d578063a694fc3a146103ba578063a9059cbb146103d7578063dd62ed3e14610403578063e3161ddd1461043157610121565b8063695464e9146102c55780636a627842146102cd57806370a08231146102f357806395d89b4114610319578063a457c2d71461032157610121565b806323b872dd116100f457806323b872dd1461021e5780632e17de7814610254578063313ce5671461027357806339509351146102915780634641257d146102bd57610121565b8063046363491461012657806306fdde0314610147578063095ea7b3146101c457806318160ddd14610204575b600080fd5b61012e610439565b6040805192835260208301919091528051918290030190f35b61014f61045a565b6040805160208082528351818301528351919283929083019185019080838360005b83811015610189578181015183820152602001610171565b50505050905090810190601f1680156101b65780820380516001836020036101000a031916815260200191505b509250505060405180910390f35b6101f0600480360360408110156101da57600080fd5b506001600160a01b0381351690602001356104f1565b604080519115158252519081900360200190f35b61020c61050e565b60408051918252519081900360200190f35b6101f06004803603606081101561023457600080fd5b506001600160a01b03813581169160208101359091169060400135610514565b6102716004803603602081101561026a57600080fd5b50356105a1565b005b61027b610666565b6040805160ff9092168252519081900360200190f35b6101f0600480360360408110156102a757600080fd5b506001600160a01b03813516906020013561066f565b6101f06106c3565b61020c610865565b610271600480360360208110156102e357600080fd5b50356001600160a01b031661086b565b61020c6004803603602081101561030957600080fd5b50356001600160a01b03166108c0565b61014f6108db565b6101f06004803603604081101561033757600080fd5b506001600160a01b03813516906020013561093c565b6103556109aa565b604051808361032080838360005b8381101561037b578181015183820152602001610363565b5050505090500182601960200280838360005b838110156103a657818101518382015260200161038e565b505050509050019250505060405180910390f35b610271600480360360208110156103d057600080fd5b5035610a83565b6101f0600480360360408110156103ed57600080fd5b506001600160a01b038135169060200135610c96565b61020c6004803603604081101561041957600080fd5b506001600160a01b0381358116916020013516610caa565b610271610cd5565b3360009081526007602052604090206001810154905463ffffffff90911691565b60038054604080516020601f60026000196101006001881615020190951694909404938401819004810282018101909252828152606093909290918301828280156104e65780601f106104bb576101008083540402835291602001916104e6565b820191906000526020600020905b8154815290600101906020018083116104c957829003601f168201915b505050505090505b90565b60006105056104fe610ed1565b8484610ed5565b50600192915050565b60025490565b6000610521848484610fc1565b6105978461052d610ed1565b61059285604051806060016040528060288152602001611453602891396001600160a01b038a1660009081526001602052604081209061056b610ed1565b6001600160a01b03168152602081019190915260400160002054919063ffffffff61112816565b610ed5565b5060019392505050565b336000908152600760205260409020548111156105fe576040805162461bcd60e51b8152602060048201526016602482015275125b9d985b1a59081d5b9cdd185ad948185b5bdd5b9d60521b604482015290519081900360640190fd5b6106066106c3565b50600a805482900390553360009081526007602052604090205481141561064c57336000908152600760205260408120908155600101805463ffffffff19169055610663565b336000908152600760205260409020805482900390555b50565b60055460ff1690565b600061050561067c610ed1565b84610592856001600061068d610ed1565b6001600160a01b03908116825260208083019390935260409182016000908120918c16815292529020549063ffffffff6111bf16565b3360009081526007602052604081206001015463ffffffff161580159061070857506009543360009081526007602052604090206001015463ffffffff908116911614155b1561085f573360009081526007602052604090206001015463ffffffff165b60095463ffffffff90811690821610156108295760055463ffffffff82811660009081526008602090815260408083206001810154905433808652600790945291909320546101009095046001600160a01b03169463a9059cbb949293670de0b6b3a764000093909261079d9285029161122016565b02816107a557fe5b046040518363ffffffff1660e01b815260040180836001600160a01b03166001600160a01b0316815260200182815260200192505050602060405180830381600087803b1580156107f557600080fd5b505af1158015610809573d6000803e3d6000fd5b505050506040513d602081101561081f57600080fd5b5050600101610727565b50506009543360009081526007602052604090206001908101805463ffffffff191663ffffffff909316929092179091556104ee565b50600090565b600a5481565b6006546001600160a01b031633146108b45760405162461bcd60e51b81526004018080602001828103825260218152602001806114e96021913960400191505060405180910390fd5b61066381600b54611262565b6001600160a01b031660009081526020819052604090205490565b60048054604080516020601f60026000196101006001881615020190951694909404938401819004810282018101909252828152606093909290918301828280156104e65780601f106104bb576101008083540402835291602001916104e6565b6000610505610949610ed1565b84610592856040518060600160405280602581526020016114c46025913960016000610973610ed1565b6001600160a01b03908116825260208083019390935260409182016000908120918d1681529252902054919063ffffffff61112816565b6109b26113c8565b6109ba6113c8565b3360009081526007602052604081206001015463ffffffff16905b60095463ffffffff9081169083161080156109f05750601981105b15610a7d578163ffffffff16848260198110610a0857fe5b6020908102919091019190915263ffffffff8084166000908152600883526040808220600181015490543384526007909552912054670de0b6b3a7640000939192610a5892918502919061122016565b0281610a6057fe5b04838260198110610a6d57fe5b60200201526001909101906109d5565b50509091565b60408051636eb1769f60e11b81523360048201523060248201819052915183929163dd62ed3e916044808301926020929190829003018186803b158015610ac957600080fd5b505afa158015610add573d6000803e3d6000fd5b505050506040513d6020811015610af357600080fd5b505110801590610b73575060408051636eb1769f60e11b8152336004820152306024820181905291516000929163dd62ed3e916044808301926020929190829003018186803b158015610b4557600080fd5b505afa158015610b59573d6000803e3d6000fd5b505050506040513d6020811015610b6f57600080fd5b5051115b610bc4576040805162461bcd60e51b815260206004820152601c60248201527f496e76616c696420616c6c6f77616e636520666f72207374616b652e00000000604482015290519081900360640190fd5b610bcc6106c3565b610bfd57600954336000908152600760205260409020600101805463ffffffff191663ffffffff9092169190911790555b604080516323b872dd60e01b815233600482015230602482018190526044820184905291516323b872dd916064808201926020929091908290030181600087803b158015610c4a57600080fd5b505af1158015610c5e573d6000803e3d6000fd5b505050506040513d6020811015610c7457600080fd5b5050336000908152600760205260409020805482019055600a80549091019055565b6000610505610ca3610ed1565b8484610fc1565b6001600160a01b03918216600090815260016020908152604080832093909416825291909152205490565b6006546001600160a01b03163314610d1e5760405162461bcd60e51b81526004018080602001828103825260218152602001806114e96021913960400191505060405180910390fd5b60055460408051636eb1769f60e11b8152336004820152306024820152905160009261010090046001600160a01b03169163dd62ed3e916044808301926020929190829003018186803b158015610d7457600080fd5b505afa158015610d88573d6000803e3d6000fd5b505050506040513d6020811015610d9e57600080fd5b5051600554604080516323b872dd60e01b81523360048201523060248201526044810184905290519293506101009091046001600160a01b0316916323b872dd916064808201926020929091908290030181600087803b158015610e0157600080fd5b505af1158015610e15573d6000803e3d6000fd5b505050506040513d6020811015610e2b57600080fd5b5050604080518082018252600a54815260208181018481526009805463ffffffff9081166000908152600885528681209551865592516001958601559054168082529084902080549301548451918252918101929092528183015290517f90c646c024a291390cd8bb5dafc3840c7b928bbb5cc997618e347c2f30d186649181900360600190a1506009805463ffffffff8082166001011663ffffffff19909116179055565b3390565b6001600160a01b038316610f1a5760405162461bcd60e51b81526004018080602001828103825260248152602001806114a06024913960400191505060405180910390fd5b6001600160a01b038216610f5f5760405162461bcd60e51b815260040180806020018281038252602281526020018061140b6022913960400191505060405180910390fd5b6001600160a01b03808416600081815260016020908152604080832094871680845294825291829020859055815185815291517f8c5be1e5ebec7d5bd14f71427d1e84f3dd0314c0f7b2291e5b200ac8c7c3b9259281900390910190a3505050565b6001600160a01b0383166110065760405162461bcd60e51b815260040180806020018281038252602581526020018061147b6025913960400191505060405180910390fd5b6001600160a01b03821661104b5760405162461bcd60e51b81526004018080602001828103825260238152602001806113e86023913960400191505060405180910390fd5b61105683838361135e565b6110998160405180606001604052806026815260200161142d602691396001600160a01b038616600090815260208190526040902054919063ffffffff61112816565b6001600160a01b0380851660009081526020819052604080822093909355908416815220546110ce908263ffffffff6111bf16565b6001600160a01b038084166000818152602081815260409182902094909455805185815290519193928716927fddf252ad1be2c89b69c2b068fc378daa952ba7f163c4a11628f55a4df523b3ef92918290030190a3505050565b600081848411156111b75760405162461bcd60e51b81526004018080602001828103825283818151815260200191508051906020019080838360005b8381101561117c578181015183820152602001611164565b50505050905090810190601f1680156111a95780820380516001836020036101000a031916815260200191505b509250505060405180910390fd5b505050900390565b600082820183811015611219576040805162461bcd60e51b815260206004820152601b60248201527f536166654d6174683a206164646974696f6e206f766572666c6f770000000000604482015290519081900360640190fd5b9392505050565b600061121983836040518060400160405280601a81526020017f536166654d6174683a206469766973696f6e206279207a65726f000000000000815250611363565b6001600160a01b0382166112bd576040805162461bcd60e51b815260206004820152601f60248201527f45524332303a206d696e7420746f20746865207a65726f206164647265737300604482015290519081900360640190fd5b6112c96000838361135e565b6002546112dc908263ffffffff6111bf16565b6002556001600160a01b038216600090815260208190526040902054611308908263ffffffff6111bf16565b6001600160a01b0383166000818152602081815260408083209490945583518581529351929391927fddf252ad1be2c89b69c2b068fc378daa952ba7f163c4a11628f55a4df523b3ef9281900390910190a35050565b505050565b600081836113b25760405162461bcd60e51b815260206004820181815283516024840152835190928392604490910191908501908083836000831561117c578181015183820152602001611164565b5060008385816113be57fe5b0495945050505050565b604051806103200160405280601990602082028036833750919291505056fe45524332303a207472616e7366657220746f20746865207a65726f206164647265737345524332303a20617070726f766520746f20746865207a65726f206164647265737345524332303a207472616e7366657220616d6f756e7420657863656564732062616c616e636545524332303a207472616e7366657220616d6f756e74206578636565647320616c6c6f77616e636545524332303a207472616e736665722066726f6d20746865207a65726f206164647265737345524332303a20617070726f76652066726f6d20746865207a65726f206164647265737345524332303a2064656372656173656420616c6c6f77616e63652062656c6f77207a65726f496e76616c6964206c6f747465727920636f6e747261637420616464726573732ea2646970667358221220844bdc982defb6398a95cd118f22eb9df81655f580777d2cbdf0575f647c6f3a64736f6c63430006090033",
    "sourcePath": "e:/Tellor-Lottery/TellorTimeConsole/TellorTimeConsole/TellorTimeContracts/TellorLotteryPool.sol",
    "compiler": {
        "name": "solc",
        "version": "0.6.9+commit.3e3065ac"
    },
    "functionHashes": {
        "allowance(address,address)": "dd62ed3e",
        "approve(address,uint256)": "095ea7b3",
        "balanceOf(address)": "70a08231",
        "currentStaked()": "695464e9",
        "decimals()": "313ce567",
        "decreaseAllowance(address,uint256)": "a457c2d7",
        "harvest()": "4641257d",
        "increaseAllowance(address,uint256)": "39509351",
        "mint(address)": "6a627842",
        "name()": "06fdde03",
        "stake(uint256)": "a694fc3a",
        "symbol()": "95d89b41",
        "totalSupply()": "18160ddd",
        "transfer(address,uint256)": "a9059cbb",
        "transferFrom(address,address,uint256)": "23b872dd",
        "unstake(uint256)": "2e17de78",
        "updatePool()": "e3161ddd",
        "viewHarvest()": "a67f324a",
        "viewStake()": "04636349"
    },
    "gasEstimates": {
        "creation": {
            "codeDepositCost": "1087800",
            "executionCost": "infinite",
            "totalCost": "infinite"
        },
        "external": {
            "allowance(address,address)": "1338",
            "approve(address,uint256)": "infinite",
            "balanceOf(address)": "1212",
            "currentStaked()": "1021",
            "decimals()": "1080",
            "decreaseAllowance(address,uint256)": "infinite",
            "harvest()": "infinite",
            "increaseAllowance(address,uint256)": "infinite",
            "mint(address)": "infinite",
            "name()": "infinite",
            "stake(uint256)": "infinite",
            "symbol()": "infinite",
            "totalSupply()": "1088",
            "transfer(address,uint256)": "infinite",
            "transferFrom(address,address,uint256)": "infinite",
            "unstake(uint256)": "infinite",
            "updatePool()": "infinite",
            "viewHarvest()": "infinite",
            "viewStake()": "1938"
        }
    }
}