{
    "contractName": "TellorLottery",
    "abi": [
        {
            "inputs": [
                {
                    "internalType": "address payable",
                    "name": "_tellorAddress",
                    "type": "address"
                },
                {
                    "internalType": "uint256",
                    "name": "_competitionStart",
                    "type": "uint256"
                }
            ],
            "stateMutability": "nonpayable",
            "type": "constructor"
        },
        {
            "anonymous": false,
            "inputs": [
                {
                    "indexed": false,
                    "internalType": "string",
                    "name": "error",
                    "type": "string"
                },
                {
                    "indexed": false,
                    "internalType": "uint256",
                    "name": "n",
                    "type": "uint256"
                }
            ],
            "name": "buyTicketError",
            "type": "event"
        },
        {
            "anonymous": false,
            "inputs": [
                {
                    "indexed": false,
                    "internalType": "uint256",
                    "name": "competitionNumber",
                    "type": "uint256"
                },
                {
                    "indexed": false,
                    "internalType": "address",
                    "name": "sender",
                    "type": "address"
                },
                {
                    "indexed": false,
                    "internalType": "uint256",
                    "name": "ticketNumber",
                    "type": "uint256"
                },
                {
                    "indexed": false,
                    "internalType": "uint64[6]",
                    "name": "numbers",
                    "type": "uint64[6]"
                },
                {
                    "indexed": false,
                    "internalType": "uint256",
                    "name": "prizePool",
                    "type": "uint256"
                }
            ],
            "name": "buyTicketSuccess",
            "type": "event"
        },
        {
            "anonymous": false,
            "inputs": [
                {
                    "indexed": false,
                    "internalType": "uint256",
                    "name": "jackpotPrize",
                    "type": "uint256"
                },
                {
                    "indexed": false,
                    "internalType": "uint256",
                    "name": "tierTwoPrize",
                    "type": "uint256"
                },
                {
                    "indexed": false,
                    "internalType": "uint256",
                    "name": "tierThreePrize",
                    "type": "uint256"
                },
                {
                    "indexed": false,
                    "internalType": "uint256",
                    "name": "jackpotWinnerNum",
                    "type": "uint256"
                },
                {
                    "indexed": false,
                    "internalType": "uint256",
                    "name": "tierTwoWinnerNum",
                    "type": "uint256"
                },
                {
                    "indexed": false,
                    "internalType": "uint256",
                    "name": "tierthreeWinnerNum",
                    "type": "uint256"
                }
            ],
            "name": "distributeVariables",
            "type": "event"
        },
        {
            "anonymous": false,
            "inputs": [
                {
                    "indexed": false,
                    "internalType": "uint64[22]",
                    "name": "ticketIDs",
                    "type": "uint64[22]"
                }
            ],
            "name": "generatedIDs",
            "type": "event"
        },
        {
            "anonymous": false,
            "inputs": [
                {
                    "indexed": false,
                    "internalType": "uint256",
                    "name": "competitionNumber",
                    "type": "uint256"
                },
                {
                    "indexed": false,
                    "internalType": "uint64[22]",
                    "name": "winningIDs",
                    "type": "uint64[22]"
                },
                {
                    "indexed": false,
                    "internalType": "uint64[6]",
                    "name": "numbers",
                    "type": "uint64[6]"
                }
            ],
            "name": "lottoUpdate",
            "type": "event"
        },
        {
            "anonymous": false,
            "inputs": [
                {
                    "indexed": false,
                    "internalType": "address",
                    "name": "owner",
                    "type": "address"
                },
                {
                    "indexed": false,
                    "internalType": "uint256",
                    "name": "ticketNumber",
                    "type": "uint256"
                },
                {
                    "indexed": false,
                    "internalType": "uint64[6]",
                    "name": "numbers",
                    "type": "uint64[6]"
                }
            ],
            "name": "viewParticipantTickets",
            "type": "event"
        },
        {
            "anonymous": false,
            "inputs": [
                {
                    "indexed": false,
                    "internalType": "uint256",
                    "name": "competitionNumber",
                    "type": "uint256"
                },
                {
                    "indexed": false,
                    "internalType": "address",
                    "name": "winner",
                    "type": "address"
                },
                {
                    "indexed": false,
                    "internalType": "uint256",
                    "name": "prize",
                    "type": "uint256"
                }
            ],
            "name": "winningsDistributed",
            "type": "event"
        },
        {
            "inputs": [
                {
                    "internalType": "uint64[6]",
                    "name": "_numbers",
                    "type": "uint64[6]"
                }
            ],
            "name": "buyTicket",
            "outputs": [],
            "stateMutability": "nonpayable",
            "type": "function"
        },
        {
            "inputs": [],
            "name": "competitionMask",
            "outputs": [
                {
                    "internalType": "uint256",
                    "name": "",
                    "type": "uint256"
                }
            ],
            "stateMutability": "view",
            "type": "function"
        },
        {
            "inputs": [],
            "name": "competitionNumber",
            "outputs": [
                {
                    "internalType": "uint256",
                    "name": "",
                    "type": "uint256"
                }
            ],
            "stateMutability": "view",
            "type": "function"
        },
        {
            "inputs": [],
            "name": "disputePeriod",
            "outputs": [
                {
                    "internalType": "uint256",
                    "name": "",
                    "type": "uint256"
                }
            ],
            "stateMutability": "view",
            "type": "function"
        },
        {
            "inputs": [
                {
                    "internalType": "uint64[6]",
                    "name": "_numbers",
                    "type": "uint64[6]"
                }
            ],
            "name": "generateTicketIDs",
            "outputs": [
                {
                    "internalType": "uint64[22]",
                    "name": "ticketIDs",
                    "type": "uint64[22]"
                }
            ],
            "stateMutability": "nonpayable",
            "type": "function"
        },
        {
            "inputs": [
                {
                    "internalType": "uint256",
                    "name": "_requestId",
                    "type": "uint256"
                }
            ],
            "name": "getCurrentValue",
            "outputs": [
                {
                    "internalType": "bool",
                    "name": "ifRetrieve",
                    "type": "bool"
                },
                {
                    "internalType": "uint256",
                    "name": "value",
                    "type": "uint256"
                },
                {
                    "internalType": "uint256",
                    "name": "_timestampRetrieved",
                    "type": "uint256"
                }
            ],
            "stateMutability": "view",
            "type": "function"
        },
        {
            "inputs": [
                {
                    "internalType": "uint256",
                    "name": "_requestId",
                    "type": "uint256"
                },
                {
                    "internalType": "uint256",
                    "name": "_timestamp",
                    "type": "uint256"
                }
            ],
            "name": "getDataBefore",
            "outputs": [
                {
                    "internalType": "bool",
                    "name": "_ifRetrieve",
                    "type": "bool"
                },
                {
                    "internalType": "uint256",
                    "name": "_value",
                    "type": "uint256"
                },
                {
                    "internalType": "uint256",
                    "name": "_timestampRetrieved",
                    "type": "uint256"
                }
            ],
            "stateMutability": "nonpayable",
            "type": "function"
        },
        {
            "inputs": [
                {
                    "internalType": "uint256",
                    "name": "_requestId",
                    "type": "uint256"
                },
                {
                    "internalType": "uint256",
                    "name": "_timestamp",
                    "type": "uint256"
                }
            ],
            "name": "getIndexForDataBefore",
            "outputs": [
                {
                    "internalType": "bool",
                    "name": "found",
                    "type": "bool"
                },
                {
                    "internalType": "uint256",
                    "name": "index",
                    "type": "uint256"
                }
            ],
            "stateMutability": "view",
            "type": "function"
        },
        {
            "inputs": [
                {
                    "internalType": "uint256",
                    "name": "_requestId",
                    "type": "uint256"
                }
            ],
            "name": "getNewValueCountbyRequestId",
            "outputs": [
                {
                    "internalType": "uint256",
                    "name": "",
                    "type": "uint256"
                }
            ],
            "stateMutability": "view",
            "type": "function"
        },
        {
            "inputs": [
                {
                    "internalType": "uint256",
                    "name": "_requestId",
                    "type": "uint256"
                },
                {
                    "internalType": "uint256",
                    "name": "_index",
                    "type": "uint256"
                }
            ],
            "name": "getTimestampbyRequestIDandIndex",
            "outputs": [
                {
                    "internalType": "uint256",
                    "name": "",
                    "type": "uint256"
                }
            ],
            "stateMutability": "view",
            "type": "function"
        },
        {
            "inputs": [
                {
                    "internalType": "uint256",
                    "name": "_requestId",
                    "type": "uint256"
                },
                {
                    "internalType": "uint256",
                    "name": "_timestamp",
                    "type": "uint256"
                }
            ],
            "name": "isInDispute",
            "outputs": [
                {
                    "internalType": "bool",
                    "name": "",
                    "type": "bool"
                }
            ],
            "stateMutability": "view",
            "type": "function"
        },
        {
            "inputs": [],
            "name": "lotteryPool",
            "outputs": [
                {
                    "internalType": "contract TellorLotteryPool",
                    "name": "",
                    "type": "address"
                }
            ],
            "stateMutability": "view",
            "type": "function"
        },
        {
            "inputs": [],
            "name": "mask",
            "outputs": [
                {
                    "internalType": "uint8",
                    "name": "",
                    "type": "uint8"
                }
            ],
            "stateMutability": "view",
            "type": "function"
        },
        {
            "inputs": [
                {
                    "internalType": "uint256",
                    "name": "_competition",
                    "type": "uint256"
                }
            ],
            "name": "numberOfWinners",
            "outputs": [
                {
                    "internalType": "uint256",
                    "name": "_jackpotWinners",
                    "type": "uint256"
                },
                {
                    "internalType": "uint256",
                    "name": "_tierTwoWinners",
                    "type": "uint256"
                },
                {
                    "internalType": "uint256",
                    "name": "_tierThreeWinners",
                    "type": "uint256"
                }
            ],
            "stateMutability": "view",
            "type": "function"
        },
        {
            "inputs": [
                {
                    "internalType": "uint256",
                    "name": "_competition",
                    "type": "uint256"
                }
            ],
            "name": "prizePool",
            "outputs": [
                {
                    "internalType": "uint256",
                    "name": "prize",
                    "type": "uint256"
                }
            ],
            "stateMutability": "view",
            "type": "function"
        },
        {
            "inputs": [
                {
                    "internalType": "uint256",
                    "name": "_requestId",
                    "type": "uint256"
                },
                {
                    "internalType": "uint256",
                    "name": "_timestamp",
                    "type": "uint256"
                }
            ],
            "name": "retrieveData",
            "outputs": [
                {
                    "internalType": "uint256",
                    "name": "",
                    "type": "uint256"
                }
            ],
            "stateMutability": "view",
            "type": "function"
        },
        {
            "inputs": [],
            "name": "senderAllownace",
            "outputs": [
                {
                    "internalType": "uint256",
                    "name": "",
                    "type": "uint256"
                }
            ],
            "stateMutability": "view",
            "type": "function"
        },
        {
            "inputs": [],
            "name": "ticketCost",
            "outputs": [
                {
                    "internalType": "uint256",
                    "name": "",
                    "type": "uint256"
                }
            ],
            "stateMutability": "view",
            "type": "function"
        },
        {
            "inputs": [],
            "name": "ticketNumber",
            "outputs": [
                {
                    "internalType": "uint256",
                    "name": "",
                    "type": "uint256"
                }
            ],
            "stateMutability": "view",
            "type": "function"
        },
        {
            "inputs": [],
            "name": "updateLotto",
            "outputs": [],
            "stateMutability": "nonpayable",
            "type": "function"
        },
        {
            "inputs": [
                {
                    "internalType": "uint256",
                    "name": "_competition",
                    "type": "uint256"
                }
            ],
            "name": "viewTickets",
            "outputs": [
                {
                    "internalType": "uint256[100]",
                    "name": "_ticketNumbers",
                    "type": "uint256[100]"
                },
                {
                    "internalType": "uint64[600]",
                    "name": "_numbers",
                    "type": "uint64[600]"
                }
            ],
            "stateMutability": "view",
            "type": "function"
        },
        {
            "inputs": [
                {
                    "internalType": "uint256",
                    "name": "_competition",
                    "type": "uint256"
                }
            ],
            "name": "winningNumbers",
            "outputs": [
                {
                    "internalType": "uint64[6]",
                    "name": "numbers",
                    "type": "uint64[6]"
                }
            ],
            "stateMutability": "view",
            "type": "function"
        }
    ],
    "bytecode": "6080604052604d6002556001600355670de0b6b3a76400006007556008805460ff1916603f17905561ffff6009553480156200003a57600080fd5b5060405162004e7e38038062004e7e833981810160405260408110156200006057600080fd5b508051602090910151600080546001600160a01b0319166001600160a01b03841617905560058190556040513090839083906200009d9062000158565b6001600160a01b03938416815291909216602082015260408082019290925260a0606082018190526014908201527f54656c6c6f72204c6f747465727920546f6b656e00000000000000000000000060c082015260e0608082018190526003908201526215131560ea1b61010082015290519081900361012001906000f0801580156200012e573d6000803e3d6000fd5b50600180546001600160a01b0319166001600160a01b039290921691909117905550620001669050565b61184d806200363183390190565b6134bb80620001766000396000f3fe608060405234801561001057600080fd5b50600436106101425760003560e01c806360724a9f116100b8578063ab3eb60e1161007c578063ab3eb60e14610401578063b73e497914610484578063c54c7da6146104c2578063c89888c1146104ca578063d636e6fa146104d2578063ed94a3c3146104ef57610142565b806360724a9f1461035557806366b446111461039057806377fbb663146103b357806393fa4915146103d65780639f0f37e1146103f957610142565b80633df0777b1161010a5780633df0777b146101ff5780633fcad96414610236578063407f84561461027357806346eee1c4146102fe5780634e45f0951461031b5780635bf31d4d1461034d57610142565b80630c28f18d14610147578063116134ee146101615780631eecd9341461017f5780632182c4f0146101875780632c831633146101db575b600080fd5b61014f6104f7565b60408051918252519081900360200190f35b6101696104fd565b6040805160ff9092168252519081900360200190f35b61014f610506565b6101d9600480360360c081101561019d57600080fd5b810190808060c00190600680602002604051908101604052809291908260066020028082843760009201919091525091945061050c9350505050565b005b6101e3610b8f565b604080516001600160a01b039092168252519081900360200190f35b6102226004803603604081101561021557600080fd5b5080359060200135610b9e565b604080519115158252519081900360200190f35b6102536004803603602081101561024c57600080fd5b5035610c25565b604080519315158452602084019290925282820152519081900360600190f35b6102c5600480360360c081101561028957600080fd5b810190808060c001906006806020026040519081016040528092919082600660200280828437600092019190915250919450610dd99350505050565b60405180826102c080838360005b838110156102eb5781810151838201526020016102d3565b5050505090500191505060405180910390f35b61014f6004803603602081101561031457600080fd5b503561173b565b6103386004803603602081101561033157600080fd5b50356117ba565b60405181518152808260c080838360206102d3565b61014f611832565b6103726004803603602081101561036b57600080fd5b5035611838565b60408051938452602084019290925282820152519081900360600190f35b610253600480360360408110156103a657600080fd5b5080359060200135611a9e565b61014f600480360360408110156103c957600080fd5b5080359060200135611bf8565b61014f600480360360408110156103ec57600080fd5b5080359060200135611c4c565b6101d9611ca0565b61041e6004803603602081101561041757600080fd5b5035611f4f565b6040518083610c8080838360005b8381101561044457818101518382015260200161042c565b505050509050018261025860200280838360005b83811015610470578181015183820152602001610458565b505050509050019250505060405180910390f35b6104a76004803603604081101561049a57600080fd5b50803590602001356120ef565b60408051921515835260208301919091528051918290030190f35b61014f6124af565b61014f6124b5565b61014f600480360360208110156104e857600080fd5b50356124bb565b61014f6124d0565b60055481565b60085460ff1681565b60075481565b60075460005460408051636eb1769f60e11b815233600482015230602482015290516001600160a01b039092169163dd62ed3e91604480820192602092909190829003018186803b15801561056057600080fd5b505afa158015610574573d6000803e3d6000fd5b505050506040513d602081101561058a57600080fd5b505110610aaa576000805b60068260ff1610156106a957806001600160401b0316838360ff16600681106105ba57fe5b60200201516001600160401b03161180156105f15750603d838360ff16600681106105e157fe5b60200201516001600160401b0316105b610688577f8f02aee52ff313f0c282db71d8e185aaa783491b69b111e5074b0d58c7bf8768838360ff166006811061062557fe5b60200201516040518080602001836001600160401b03168152602001828103825260178152602001807f496e76616c6964207469636b6574206e756d626572732e0000000000000000008152506020019250505060405180910390a15050610b8c565b828260ff166006811061069757fe5b60200201516001909201919050610595565b60008054600754604080516323b872dd60e01b81523360048201523060248201526044810192909252516001600160a01b03909216926323b872dd926064808401936020939083900390910190829087803b15801561070757600080fd5b505af115801561071b573d6000803e3d6000fd5b505050506040513d602081101561073157600080fd5b505115610aa357600154604080516335313c2160e11b815233600482015290516001600160a01b0390921691636a6278429160248082019260009290919082900301818387803b15801561078457600080fd5b505af1158015610798573d6000803e3d6000fd5b5050600754600554600090815260046020526040902060080180549091019055506107c390506132bc565b6107cc84610dd9565b90506107d66132db565b50604080516060810182523380825260068054600190810180835560208086019182528587018b815260055460009081526004808452898220978252600d9097018352978820805480860182559089529190972086519190950290940180546001600160a01b0319166001600160a01b03909516949094178455519083015592519192839261086a916002840191906132ff565b505050600093505b60168460ff16101561092c576005546000908152600460205260408120600a01908360ff8716601681106108a257fe5b602090810291909101516001600160401b03168252818101929092526040908101600090812080546001808201835591835291849020855160049093020180546001600160a01b0319166001600160a01b03909316929092178255928401519281019290925582015182919061091e90600283019060066132ff565b505060019094019350610872565b600554600081815260046020818152604080842087516001600160401b039081168652600a909101808452828620878752948452885190911685529091529091205481547f2ce02ce4f210310aabb3eb2da1368a91c0cadf0e1c735d29168a175474746e86939291600019019081106109a157fe5b600091825260208083206004928302015460055480855283835260408086208a516001600160401b039081168852600a9091018086528288209388529585528a5116865293909252919092205482546001600160a01b039092169291600019909101908110610a0c57fe5b906000526020600020906004020160010154886004600060055481526020019081526020016000206008015460405180868152602001856001600160a01b03166001600160a01b0316815260200184815260200183600660200280838360005b83811015610a84578181015183820152602001610a6c565b505050509050018281526020019550505050505060405180910390a150505b5050610b8c565b60005460408051636eb1769f60e11b815233600482015230602482015290517f8f02aee52ff313f0c282db71d8e185aaa783491b69b111e5074b0d58c7bf8768926001600160a01b03169163dd62ed3e916044808301926020929190829003018186803b158015610b1a57600080fd5b505afa158015610b2e573d6000803e3d6000fd5b505050506040513d6020811015610b4457600080fd5b5051604080516020810192909252808252601a828201527f496e76616c696420636f6e747261637420616c6c6f77616e63650000000000006060830152519081900360800190a15b50565b6001546001600160a01b031681565b6000805460408051633df0777b60e01b8152600481018690526024810185905290516001600160a01b0390921691633df0777b91604480820192602092909190829003018186803b158015610bf257600080fd5b505afa158015610c06573d6000803e3d6000fd5b505050506040513d6020811015610c1c57600080fd5b50519392505050565b60008054604080516311bbb87160e21b81526004810185905290518392839283926001600160a01b03909216916346eee1c491602480820192602092909190829003018186803b158015610c7857600080fd5b505afa158015610c8c573d6000803e3d6000fd5b505050506040513d6020811015610ca257600080fd5b505160008054604080516377fbb66360e01b8152600481018a905260001985016024820152905193945091926001600160a01b03909116916377fbb663916044808301926020929190829003018186803b158015610cff57600080fd5b505afa158015610d13573d6000803e3d6000fd5b505050506040513d6020811015610d2957600080fd5b505160008054604080516393fa491560e01b8152600481018b905260248101859052905193945091926001600160a01b03909116916393fa4915916044808301926020929190829003018186803b158015610d8357600080fd5b505afa158015610d97573d6000803e3d6000fd5b505050506040513d6020811015610dad57600080fd5b505190508015610dc6576001955093509150610dd29050565b50600094508493509150505b9193909250565b610de16132bc565b610de96132bc565b8260056020020151600684600460200201516001600160401b0316901b600c85600360200201516001600160401b0316901b601286600260200201516001600160401b0316901b601887600160200201516001600160401b0316901b601e88600060200201516001600160401b0316901b01010101018160006001600160401b0390921660209290920201528260046020020151600684600360200201516001600160401b0316901b600c85600260200201516001600160401b0316901b601286600160200201516001600160401b0316901b601887600060200201516001600160401b0316901b010101018160016001600160401b0390921660209290920201528260056020020151600684600360200201516001600160401b0316901b600c85600260200201516001600160401b0316901b601286600160200201516001600160401b0316901b601887600060200201516001600160401b0316901b010101018160026001600160401b0390921660209290920201528260056020020151600684600460200201516001600160401b0316901b600c85600260200201516001600160401b0316901b601286600160200201516001600160401b0316901b601887600060200201516001600160401b0316901b010101018160036001600160401b0390921660209290920201528260056020020151600684600460200201516001600160401b0316901b600c85600360200201516001600160401b0316901b601286600160200201516001600160401b0316901b601887600060200201516001600160401b0316901b010101018160046001600160401b0390921660209290920201528260056020020151600684600460200201516001600160401b0316901b600c85600360200201516001600160401b0316901b601286600260200201516001600160401b0316901b601887600060200201516001600160401b0316901b010101018160056001600160401b0390921660209290920201528260056020020151600684600460200201516001600160401b0316901b600c85600360200201516001600160401b0316901b601286600260200201516001600160401b0316901b601887600160200201516001600160401b0316901b010101018160066001600160401b0390921660209290920201528260036020020151600c84600260200201516001600160401b0316901b601285600160200201516001600160401b0316901b601886600060200201516001600160401b0316901b0101018160076001600160401b0390921660209290920201528260046020020151600c84600260200201516001600160401b0316901b601285600160200201516001600160401b0316901b601886600060200201516001600160401b0316901b0101018160086001600160401b0390921660209290920201528260056020020151600c84600260200201516001600160401b0316901b601285600160200201516001600160401b0316901b601886600060200201516001600160401b0316901b0101018160096001600160401b0390921660209290920201528260046020020151600c84600360200201516001600160401b0316901b601285600160200201516001600160401b0316901b601886600060200201516001600160401b0316901b01010181600a6001600160401b0390921660209290920201528260056020020151600c84600360200201516001600160401b0316901b601285600160200201516001600160401b0316901b601886600060200201516001600160401b0316901b01010181600b6001600160401b0390921660209290920201528260056020020151600c84600460200201516001600160401b0316901b601285600160200201516001600160401b0316901b601886600060200201516001600160401b0316901b01010181600c6001600160401b0390921660209290920201528260046020020151600c84600360200201516001600160401b0316901b601285600260200201516001600160401b0316901b601886600060200201516001600160401b0316901b01010181600d6001600160401b0390921660209290920201528260056020020151600c84600360200201516001600160401b0316901b601285600260200201516001600160401b0316901b601886600060200201516001600160401b0316901b01010181600e6001600160401b0390921660209290920201528260056020020151600c84600460200201516001600160401b0316901b601285600260200201516001600160401b0316901b601886600060200201516001600160401b0316901b01010181600f6001600160401b0390921660209290920201528260056020020151600c84600460200201516001600160401b0316901b601285600360200201516001600160401b0316901b601886600060200201516001600160401b0316901b0101018160106001600160401b0390921660209290920201528260046020020151600c84600360200201516001600160401b0316901b601285600260200201516001600160401b0316901b601886600160200201516001600160401b0316901b0101018160116001600160401b0390921660209290920201528260056020020151600c84600360200201516001600160401b0316901b601285600260200201516001600160401b0316901b601886600160200201516001600160401b0316901b0101018160126001600160401b0390921660209290920201528260056020020151600c84600460200201516001600160401b0316901b601285600260200201516001600160401b0316901b601886600160200201516001600160401b0316901b0101018160136001600160401b0390921660209290920201528260056020020151600c84600460200201516001600160401b0316901b601285600360200201516001600160401b0316901b601886600160200201516001600160401b0316901b0101018160146001600160401b0390921660209290920201528260056020020151600c84600460200201516001600160401b0316901b601285600360200201516001600160401b0316901b601886600260200201516001600160401b0316901b0101018160156001600160401b0390921660209290920201526040517ff89661c921a3007174a8ff52a4848ad09aafe8584e5a6ea5df1577da9829742890829080826102c080838360005b8381101561172357818101518382015260200161170b565b5050505090500191505060405180910390a192915050565b60008054604080516311bbb87160e21b81526004810185905290516001600160a01b03909216916346eee1c491602480820192602092909190829003018186803b15801561178857600080fd5b505afa15801561179c573d6000803e3d6000fd5b505050506040513d60208110156117b257600080fd5b505192915050565b6117c26133a4565b600082815260046020526040808220815160c08101928390529290916006918390855b82829054906101000a90046001600160401b03166001600160401b0316815260200190600801906020826007010492830192600103820291508084116117e5575094979650505050505050565b60035481565b600081815260046020908152604080832060028101546001600160401b03168452600a01909152812054908060015b60078160ff1610156118f85760008581526004602081815260408084206002810180546001600160401b03168652600a909101808452918520548a86529390925291929060ff8516601681106118b957fe5b60048104919091015460039091166008026101000a90046001600160401b03168152602081019190915260400160002054039290920191600101611867565b506006601560005b60ff831615611a94575060001982015b60ff811615611a885760008781526004602081815260408084206002810180546001600160401b03168652600a909101808452918520548c86529390925291929060ff85166016811061195f57fe5b6004808204929092015460039091166008026101000a90046001600160401b03908116835260208084019490945260409283016000908120548d82528386528482206002810180549094168352600a01808752948220548e8352939095529490930393909260ff8816601681106119d257fe5b6004808204929092015460039091166008026101000a90046001600160401b03908116835260208084019490945260409283016000908120548e82528386528482206002810180549094168352600a01808752948220548f835293909552949093039390928760168110611a4257fe5b60048104919091015460039091166008026101000a90046001600160401b0316815260208101919091526040016000205403030393909301926000199182019101611910565b60001990920191611900565b5050509193909250565b6000806000806000611ab087876120ef565b9150915081611acb575060009350839250829150611bf19050565b60008054604080516377fbb66360e01b8152600481018b90526024810185905290516001600160a01b03909216916377fbb66391604480820192602092909190829003018186803b158015611b1f57600080fd5b505afa158015611b33573d6000803e3d6000fd5b505050506040513d6020811015611b4957600080fd5b5051600054604080516393fa491560e01b8152600481018c90526024810184905290519293506001600160a01b03909116916393fa491591604480820192602092909190829003018186803b158015611ba157600080fd5b505afa158015611bb5573d6000803e3d6000fd5b505050506040513d6020811015611bcb57600080fd5b505194508415611be357600195509250611bf1915050565b506000945084935083925050505b9250925092565b60008054604080516377fbb66360e01b8152600481018690526024810185905290516001600160a01b03909216916377fbb66391604480820192602092909190829003018186803b158015610bf257600080fd5b60008054604080516393fa491560e01b8152600481018690526024810185905290516001600160a01b03909216916393fa491591604480820192602092909190829003018186803b158015610bf257600080fd5b6000806000611cb56002546003544203611a9e565b91945090925090508215611f4a5760095460055490821690811415611f48576040805160c08101825260008082526020808301829052828401829052606083018290526080830182905260a0830182905260055482526004905291909120601084901c91611d25919060066132ff565b5060055b60008160000b12611daa57600854600554600090815260046020526040812091841660ff16919083900b60068110611d5d57fe5b600491828204019190066008026101000a8154816001600160401b0302191690836001600160401b031602179055506006826001600160401b0316901c9150808060019003915050611d29565b600554600090815260046020526040808220815160c0810192839052611e1f9390926006918390855b82829054906101000a90046001600160401b03166001600160401b031681526020019060080190602082600701049283019260010382029150808411611dd35790505050505050610dd9565b6005546000908152600460205260409020611e419160029091019060166133c2565b50600554600090815260046020908152604080832090518681527f34249221b37290ffe2c11410c032e3d76818aaa03d6fb8dd69825875b3a99d58938793600284019392916102e083019185919084015b82829054906101000a90046001600160401b03166001600160401b031681526020019060080190602082600701049283019260010382029150808411611e925750505060c081019083906000905b82829054906101000a90046001600160401b03166001600160401b031681526020019060080190602082600701049283019260010382029150808411611ee05790505050935050505060405180910390a16005805460018101909155611f4590612554565b50505b505b505050565b611f57613421565b611f5f613440565b600080805b6000868152600460209081526040808320338452600d0190915290205461ffff8316108015611f97575060648261ffff16105b156120e7576000868152600460209081526040808320338452600d019091529020805461ffff8416908110611fc857fe5b906000526020600020906004020160010154858361ffff1660648110611fea57fe5b60200201525060005b6000868152600460209081526040808320338452600d019091529020805461ffff841690811061201f57fe5b50600052600661ffff821610801561203c57506102588261ffff16105b156120dc576000868152600460209081526040808320338452600d019091529020805461ffff841690811061206d57fe5b90600052602060002090600402016002018161ffff166006811061208d57fe5b600491828204019190066008029054906101000a90046001600160401b0316848461ffff1661025881106120bd57fe5b6001600160401b03909216602092909202015260019283019201611ff3565b600190910190611f64565b505050915091565b60008054604080516311bbb87160e21b8152600481018690529051839283926001600160a01b03909116916346eee1c491602480820192602092909190829003018186803b15801561214057600080fd5b505afa158015612154573d6000803e3d6000fd5b505050506040513d602081101561216a57600080fd5b50519050801561249f5760008054604080516377fbb66360e01b815260048101899052602481018490529051839260001986019284926001600160a01b03909216916377fbb66391604480820192602092909190829003018186803b1580156121d257600080fd5b505afa1580156121e6573d6000803e3d6000fd5b505050506040513d60208110156121fc57600080fd5b505190508781106122195750600095508594506124a89350505050565b600054604080516377fbb66360e01b8152600481018c90526024810185905290516001600160a01b03909216916377fbb66391604480820192602092909190829003018186803b15801561226c57600080fd5b505afa158015612280573d6000803e3d6000fd5b505050506040513d602081101561229657600080fd5b50519050878110156122b257506001955093506124a892505050565b600054604080516377fbb66360e01b8152600481018c905260028686030486016001016024820181905291519196506001600160a01b03909216916377fbb663916044808301926020929190829003018186803b15801561231257600080fd5b505afa158015612326573d6000803e3d6000fd5b505050506040513d602081101561233c57600080fd5b50519050878110156123f15760008054604080516377fbb66360e01b8152600481018d905260018801602482015290516001600160a01b03909216916377fbb66391604480820192602092909190829003018186803b15801561239e57600080fd5b505afa1580156123b2573d6000803e3d6000fd5b505050506040513d60208110156123c857600080fd5b505190508881106123e557600185975097505050505050506124a8565b8460010193505061249a565b60008054604080516377fbb66360e01b8152600481018d90526000198801602482015290516001600160a01b03909216916377fbb66391604480820192602092909190829003018186803b15801561244857600080fd5b505afa15801561245c573d6000803e3d6000fd5b505050506040513d602081101561247257600080fd5b5051905088811015612492576001808603975097505050505050506124a8565b600185039250505b6122b2565b50600091508190505b9250929050565b60065481565b60095481565b60009081526004602052604090206008015490565b6000805460408051636eb1769f60e11b815233600482015230602482015290516001600160a01b039092169163dd62ed3e91604480820192602092909190829003018186803b15801561252257600080fd5b505afa158015612536573d6000803e3d6000fd5b505050506040513d602081101561254c57600080fd5b505190505b90565b60008181526004602052604090206009015460ff16158015612577575060055481105b15610b8c57600080600061258a84611838565b91945092509050600080806125a18787878761315d565b6040805184815260208101849052808201839052606081018b9052608081018a905260a08101899052905193965091945092507fa78027b0cef4fc84cb487ba164a74135a9f33cb257ebd9b5366446ae73f51824919081900360c00190a160005b600088815260046020908152604080832060028101546001600160401b03168452600a0190915290205463ffffffff8216101561283f57600088815260046020908152604080832060028101546001600160401b03168452600a810190925282208054600193600b90930192919063ffffffff861690811061268057fe5b600091825260208083206004928302016001015484528381019490945260409283018220805460ff19169515159590951790945580548c825293835281812060028101546001600160401b03168252600a01909252902080546001600160a01b039092169163a9059cbb919063ffffffff85169081106126fc57fe5b906000526020600020906004020160000160009054906101000a90046001600160a01b0316866040518363ffffffff1660e01b815260040180836001600160a01b03166001600160a01b0316815260200182815260200192505050602060405180830381600087803b15801561277157600080fd5b505af1158015612785573d6000803e3d6000fd5b505050506040513d602081101561279b57600080fd5b5050600088815260046020908152604080832060028101546001600160401b03168452600a01909152902080547fb0da801e1a19dfdb65168b670698d77f77bfed9bbff0536030cb63893937056d918a9163ffffffff85169081106127fc57fe5b600091825260209182902060049091020154604080519384526001600160a01b0390911691830191909152818101879052519081900360600190a1600101612602565b50600160005b60078263ffffffff161015612c36575060005b6000898152600460205260408120600a8101919060020163ffffffff85166016811061288057fe5b60048104919091015460039091166008026101000a90046001600160401b0316815260208101919091526040016000205463ffffffff82161015612c2b576000898152600460205260408120600b81019190600a810190829060020163ffffffff8716601681106128ed57fe5b600491828204019190066008029054906101000a90046001600160401b03166001600160401b03166001600160401b031681526020019081526020016000208363ffffffff168154811061293d57fe5b906000526020600020906004020160010154815260200190815260200160002060009054906101000a900460ff16612c23576000898152600460205260408120600191600c820191600a810190829060020163ffffffff8816601681106129a057fe5b600491828204019190066008029054906101000a90046001600160401b03166001600160401b03166001600160401b031681526020019081526020016000208463ffffffff16815481106129f057fe5b600091825260208083206004928302016001015484528381019490945260409283018220805460ff19169515159590951790945580548d82529390925281206001600160a01b039092169163a9059cbb91600a82019160020163ffffffff871660168110612a5a57fe5b600491828204019190066008029054906101000a90046001600160401b03166001600160401b03166001600160401b031681526020019081526020016000208363ffffffff1681548110612aaa57fe5b906000526020600020906004020160000160009054906101000a90046001600160a01b0316866040518363ffffffff1660e01b815260040180836001600160a01b03166001600160a01b0316815260200182815260200192505050602060405180830381600087803b158015612b1f57600080fd5b505af1158015612b33573d6000803e3d6000fd5b505050506040513d6020811015612b4957600080fd5b505060008981526004602052604081207fb0da801e1a19dfdb65168b670698d77f77bfed9bbff0536030cb63893937056d918b91600a8101919060020163ffffffff871660168110612b9757fe5b600491828204019190066008029054906101000a90046001600160401b03166001600160401b03166001600160401b031681526020019081526020016000208363ffffffff1681548110612be757fe5b600091825260209182902060049091020154604080519384526001600160a01b0390911691830191909152818101879052519081900360600190a15b600101612858565b600190910190612845565b600791505b60168263ffffffff161015613035575060005b6000898152600460205260408120600a8101919060020163ffffffff851660168110612c7657fe5b60048104919091015460039091166008026101000a90046001600160401b0316815260208101919091526040016000205463ffffffff8216101561302a576000898152600460205260408120600b81019190600a810190829060020163ffffffff871660168110612ce357fe5b600491828204019190066008029054906101000a90046001600160401b03166001600160401b03166001600160401b031681526020019081526020016000208363ffffffff1681548110612d3357fe5b906000526020600020906004020160010154815260200190815260200160002060009054906101000a900460ff16158015612e1857506000898152600460205260408120600c81019190600a810190829060020163ffffffff871660168110612d9857fe5b600491828204019190066008029054906101000a90046001600160401b03166001600160401b03166001600160401b031681526020019081526020016000208363ffffffff1681548110612de857fe5b906000526020600020906004020160010154815260200190815260200160002060009054906101000a900460ff16155b1561302257600080548a82526004602052604082206001600160a01b039091169163a9059cbb91600a8101919060020163ffffffff871660168110612e5957fe5b600491828204019190066008029054906101000a90046001600160401b03166001600160401b03166001600160401b031681526020019081526020016000208363ffffffff1681548110612ea957fe5b906000526020600020906004020160000160009054906101000a90046001600160a01b0316856040518363ffffffff1660e01b815260040180836001600160a01b03166001600160a01b0316815260200182815260200192505050602060405180830381600087803b158015612f1e57600080fd5b505af1158015612f32573d6000803e3d6000fd5b505050506040513d6020811015612f4857600080fd5b505060008981526004602052604081207fb0da801e1a19dfdb65168b670698d77f77bfed9bbff0536030cb63893937056d918b91600a8101919060020163ffffffff871660168110612f9657fe5b600491828204019190066008029054906101000a90046001600160401b03166001600160401b03166001600160401b031681526020019081526020016000208363ffffffff1681548110612fe657fe5b600091825260209182902060049091020154604080519384526001600160a01b0390911691830191909152818101869052519081900360600190a15b600101612c4e565b600190910190612c3b565b600089815260046020526040812060080154606490600080546001546040805163095ea7b360e01b81526001600160a01b03928316600482015295909404601902602486018190529351939550169263095ea7b39260448083019360209383900390910190829087803b1580156130ab57600080fd5b505af11580156130bf573d6000803e3d6000fd5b505050506040513d60208110156130d557600080fd5b50506001546040805163e3161ddd60e01b815290516001600160a01b039092169163e3161ddd9160048082019260009290919082900301818387803b15801561311d57600080fd5b505af1158015613131573d6000803e3d6000fd5b50505060008b8152600460205260409020600901805460ff191660011790555050505050505050505050565b600080808686156131955760008181526004602052604090206008015487906103e890046101c2028161318c57fe5b049350836131d2565b6000818152600460205260409020600801546103e8906001830160009081526004602052604090206008018054929091046101c202909101908190555b5085156132055760008181526004602052604090206008015486906103e8900460e102816131fc57fe5b04925082613241565b6000818152600460205260409020600801546103e89060018301600090815260046020526040902060080180549290910460e102909101908190555b5084156132745760008181526004602052604090206008015485906103e89004604b028161326b57fe5b049150816132b0565b6000818152600460205260409020600801546103e890600183016000908152600460205260409020600801805492909104604b02909101908190555b50509450945094915050565b604051806102c001604052806016906020820280368337509192915050565b60408051606081018252600080825260208201529081016132fa6133a4565b905290565b6002830191839082156133945791602002820160005b8382111561335f57835183826101000a8154816001600160401b0302191690836001600160401b031602179055509260200192600801602081600701049283019260010302613315565b80156133925782816101000a8154906001600160401b03021916905560080160208160070104928301926001030261335f565b505b506133a0929150613460565b5090565b6040518060c001604052806006906020820280368337509192915050565b6006830191839082156133945791602002820160008382111561335f57835183826101000a8154816001600160401b0302191690836001600160401b031602179055509260200192600801602081600701049283019260010302613315565b60405180610c8001604052806064906020820280368337509192915050565b60405180614b000160405280610258906020820280368337509192915050565b61255191905b808211156133a057805467ffffffffffffffff1916815560010161346656fea264697066735822122026f162da92835c8b8e6f9ffac747389c96fb626a3b182dd6d9db6b902aa4204a64736f6c634300060900336080604052670de0b6b3a7640000600b553480156200001d57600080fd5b506040516200184d3803806200184d833981810160405260a08110156200004357600080fd5b8151602083015160408085015160608601805192519496939591949391820192846401000000008211156200007757600080fd5b9083019060208201858111156200008d57600080fd5b8251640100000000811182820188101715620000a857600080fd5b82525081516020918201929091019080838360005b83811015620000d7578181015183820152602001620000bd565b50505050905090810190601f168015620001055780820380516001836020036101000a031916815260200191505b50604052602001805160405193929190846401000000008211156200012957600080fd5b9083019060208201858111156200013f57600080fd5b82516401000000008111828201881017156200015a57600080fd5b82525081516020918201929091019080838360005b83811015620001895781810151838201526020016200016f565b50505050905090810190601f168015620001b75780820380516001836020036101000a031916815260200191505b50604052505082518391508290620001d790600390602085019062000259565b508051620001ed90600490602084019062000259565b505060058054600680546001600160a01b0319166001600160a01b03998a16179055601260ff1990911617610100600160a81b031916610100969097169590950295909517909355506009805463ffffffff191663ffffffff9290921691909117905550620002fe9050565b828054600181600116156101000203166002900490600052602060002090601f016020900481019282601f106200029c57805160ff1916838001178555620002cc565b82800160010185558215620002cc579182015b82811115620002cc578251825591602001919060010190620002af565b50620002da929150620002de565b5090565b620002fb91905b80821115620002da5760008155600101620002e5565b90565b61153f806200030e6000396000f3fe608060405234801561001057600080fd5b50600436106101215760003560e01c8063695464e9116100ad578063a67f324a11610071578063a67f324a1461034d578063a694fc3a146103ba578063a9059cbb146103d7578063dd62ed3e14610403578063e3161ddd1461043157610121565b8063695464e9146102c55780636a627842146102cd57806370a08231146102f357806395d89b4114610319578063a457c2d71461032157610121565b806323b872dd116100f457806323b872dd1461021e5780632e17de7814610254578063313ce5671461027357806339509351146102915780634641257d146102bd57610121565b8063046363491461012657806306fdde0314610147578063095ea7b3146101c457806318160ddd14610204575b600080fd5b61012e610439565b6040805192835260208301919091528051918290030190f35b61014f61045a565b6040805160208082528351818301528351919283929083019185019080838360005b83811015610189578181015183820152602001610171565b50505050905090810190601f1680156101b65780820380516001836020036101000a031916815260200191505b509250505060405180910390f35b6101f0600480360360408110156101da57600080fd5b506001600160a01b0381351690602001356104f1565b604080519115158252519081900360200190f35b61020c61050e565b60408051918252519081900360200190f35b6101f06004803603606081101561023457600080fd5b506001600160a01b03813581169160208101359091169060400135610514565b6102716004803603602081101561026a57600080fd5b50356105a1565b005b61027b610666565b6040805160ff9092168252519081900360200190f35b6101f0600480360360408110156102a757600080fd5b506001600160a01b03813516906020013561066f565b6101f06106c3565b61020c610865565b610271600480360360208110156102e357600080fd5b50356001600160a01b031661086b565b61020c6004803603602081101561030957600080fd5b50356001600160a01b03166108c0565b61014f6108db565b6101f06004803603604081101561033757600080fd5b506001600160a01b03813516906020013561093c565b6103556109aa565b604051808361032080838360005b8381101561037b578181015183820152602001610363565b5050505090500182601960200280838360005b838110156103a657818101518382015260200161038e565b505050509050019250505060405180910390f35b610271600480360360208110156103d057600080fd5b5035610a83565b6101f0600480360360408110156103ed57600080fd5b506001600160a01b038135169060200135610c96565b61020c6004803603604081101561041957600080fd5b506001600160a01b0381358116916020013516610caa565b610271610cd5565b3360009081526007602052604090206001810154905463ffffffff90911691565b60038054604080516020601f60026000196101006001881615020190951694909404938401819004810282018101909252828152606093909290918301828280156104e65780601f106104bb576101008083540402835291602001916104e6565b820191906000526020600020905b8154815290600101906020018083116104c957829003601f168201915b505050505090505b90565b60006105056104fe610ed1565b8484610ed5565b50600192915050565b60025490565b6000610521848484610fc1565b6105978461052d610ed1565b61059285604051806060016040528060288152602001611453602891396001600160a01b038a1660009081526001602052604081209061056b610ed1565b6001600160a01b03168152602081019190915260400160002054919063ffffffff61112816565b610ed5565b5060019392505050565b336000908152600760205260409020548111156105fe576040805162461bcd60e51b8152602060048201526016602482015275125b9d985b1a59081d5b9cdd185ad948185b5bdd5b9d60521b604482015290519081900360640190fd5b6106066106c3565b50600a805482900390553360009081526007602052604090205481141561064c57336000908152600760205260408120908155600101805463ffffffff19169055610663565b336000908152600760205260409020805482900390555b50565b60055460ff1690565b600061050561067c610ed1565b84610592856001600061068d610ed1565b6001600160a01b03908116825260208083019390935260409182016000908120918c16815292529020549063ffffffff6111bf16565b3360009081526007602052604081206001015463ffffffff161580159061070857506009543360009081526007602052604090206001015463ffffffff908116911614155b1561085f573360009081526007602052604090206001015463ffffffff165b60095463ffffffff90811690821610156108295760055463ffffffff82811660009081526008602090815260408083206001810154905433808652600790945291909320546101009095046001600160a01b03169463a9059cbb949293670de0b6b3a764000093909261079d9285029161122016565b02816107a557fe5b046040518363ffffffff1660e01b815260040180836001600160a01b03166001600160a01b0316815260200182815260200192505050602060405180830381600087803b1580156107f557600080fd5b505af1158015610809573d6000803e3d6000fd5b505050506040513d602081101561081f57600080fd5b5050600101610727565b50506009543360009081526007602052604090206001908101805463ffffffff191663ffffffff909316929092179091556104ee565b50600090565b600a5481565b6006546001600160a01b031633146108b45760405162461bcd60e51b81526004018080602001828103825260218152602001806114e96021913960400191505060405180910390fd5b61066381600b54611262565b6001600160a01b031660009081526020819052604090205490565b60048054604080516020601f60026000196101006001881615020190951694909404938401819004810282018101909252828152606093909290918301828280156104e65780601f106104bb576101008083540402835291602001916104e6565b6000610505610949610ed1565b84610592856040518060600160405280602581526020016114c46025913960016000610973610ed1565b6001600160a01b03908116825260208083019390935260409182016000908120918d1681529252902054919063ffffffff61112816565b6109b26113c8565b6109ba6113c8565b3360009081526007602052604081206001015463ffffffff16905b60095463ffffffff9081169083161080156109f05750601981105b15610a7d578163ffffffff16848260198110610a0857fe5b6020908102919091019190915263ffffffff8084166000908152600883526040808220600181015490543384526007909552912054670de0b6b3a7640000939192610a5892918502919061122016565b0281610a6057fe5b04838260198110610a6d57fe5b60200201526001909101906109d5565b50509091565b60408051636eb1769f60e11b81523360048201523060248201819052915183929163dd62ed3e916044808301926020929190829003018186803b158015610ac957600080fd5b505afa158015610add573d6000803e3d6000fd5b505050506040513d6020811015610af357600080fd5b505110801590610b73575060408051636eb1769f60e11b8152336004820152306024820181905291516000929163dd62ed3e916044808301926020929190829003018186803b158015610b4557600080fd5b505afa158015610b59573d6000803e3d6000fd5b505050506040513d6020811015610b6f57600080fd5b5051115b610bc4576040805162461bcd60e51b815260206004820152601c60248201527f496e76616c696420616c6c6f77616e636520666f72207374616b652e00000000604482015290519081900360640190fd5b610bcc6106c3565b610bfd57600954336000908152600760205260409020600101805463ffffffff191663ffffffff9092169190911790555b604080516323b872dd60e01b815233600482015230602482018190526044820184905291516323b872dd916064808201926020929091908290030181600087803b158015610c4a57600080fd5b505af1158015610c5e573d6000803e3d6000fd5b505050506040513d6020811015610c7457600080fd5b5050336000908152600760205260409020805482019055600a80549091019055565b6000610505610ca3610ed1565b8484610fc1565b6001600160a01b03918216600090815260016020908152604080832093909416825291909152205490565b6006546001600160a01b03163314610d1e5760405162461bcd60e51b81526004018080602001828103825260218152602001806114e96021913960400191505060405180910390fd5b60055460408051636eb1769f60e11b8152336004820152306024820152905160009261010090046001600160a01b03169163dd62ed3e916044808301926020929190829003018186803b158015610d7457600080fd5b505afa158015610d88573d6000803e3d6000fd5b505050506040513d6020811015610d9e57600080fd5b5051600554604080516323b872dd60e01b81523360048201523060248201526044810184905290519293506101009091046001600160a01b0316916323b872dd916064808201926020929091908290030181600087803b158015610e0157600080fd5b505af1158015610e15573d6000803e3d6000fd5b505050506040513d6020811015610e2b57600080fd5b5050604080518082018252600a54815260208181018481526009805463ffffffff9081166000908152600885528681209551865592516001958601559054168082529084902080549301548451918252918101929092528183015290517f90c646c024a291390cd8bb5dafc3840c7b928bbb5cc997618e347c2f30d186649181900360600190a1506009805463ffffffff8082166001011663ffffffff19909116179055565b3390565b6001600160a01b038316610f1a5760405162461bcd60e51b81526004018080602001828103825260248152602001806114a06024913960400191505060405180910390fd5b6001600160a01b038216610f5f5760405162461bcd60e51b815260040180806020018281038252602281526020018061140b6022913960400191505060405180910390fd5b6001600160a01b03808416600081815260016020908152604080832094871680845294825291829020859055815185815291517f8c5be1e5ebec7d5bd14f71427d1e84f3dd0314c0f7b2291e5b200ac8c7c3b9259281900390910190a3505050565b6001600160a01b0383166110065760405162461bcd60e51b815260040180806020018281038252602581526020018061147b6025913960400191505060405180910390fd5b6001600160a01b03821661104b5760405162461bcd60e51b81526004018080602001828103825260238152602001806113e86023913960400191505060405180910390fd5b61105683838361135e565b6110998160405180606001604052806026815260200161142d602691396001600160a01b038616600090815260208190526040902054919063ffffffff61112816565b6001600160a01b0380851660009081526020819052604080822093909355908416815220546110ce908263ffffffff6111bf16565b6001600160a01b038084166000818152602081815260409182902094909455805185815290519193928716927fddf252ad1be2c89b69c2b068fc378daa952ba7f163c4a11628f55a4df523b3ef92918290030190a3505050565b600081848411156111b75760405162461bcd60e51b81526004018080602001828103825283818151815260200191508051906020019080838360005b8381101561117c578181015183820152602001611164565b50505050905090810190601f1680156111a95780820380516001836020036101000a031916815260200191505b509250505060405180910390fd5b505050900390565b600082820183811015611219576040805162461bcd60e51b815260206004820152601b60248201527f536166654d6174683a206164646974696f6e206f766572666c6f770000000000604482015290519081900360640190fd5b9392505050565b600061121983836040518060400160405280601a81526020017f536166654d6174683a206469766973696f6e206279207a65726f000000000000815250611363565b6001600160a01b0382166112bd576040805162461bcd60e51b815260206004820152601f60248201527f45524332303a206d696e7420746f20746865207a65726f206164647265737300604482015290519081900360640190fd5b6112c96000838361135e565b6002546112dc908263ffffffff6111bf16565b6002556001600160a01b038216600090815260208190526040902054611308908263ffffffff6111bf16565b6001600160a01b0383166000818152602081815260408083209490945583518581529351929391927fddf252ad1be2c89b69c2b068fc378daa952ba7f163c4a11628f55a4df523b3ef9281900390910190a35050565b505050565b600081836113b25760405162461bcd60e51b815260206004820181815283516024840152835190928392604490910191908501908083836000831561117c578181015183820152602001611164565b5060008385816113be57fe5b0495945050505050565b604051806103200160405280601990602082028036833750919291505056fe45524332303a207472616e7366657220746f20746865207a65726f206164647265737345524332303a20617070726f766520746f20746865207a65726f206164647265737345524332303a207472616e7366657220616d6f756e7420657863656564732062616c616e636545524332303a207472616e7366657220616d6f756e74206578636565647320616c6c6f77616e636545524332303a207472616e736665722066726f6d20746865207a65726f206164647265737345524332303a20617070726f76652066726f6d20746865207a65726f206164647265737345524332303a2064656372656173656420616c6c6f77616e63652062656c6f77207a65726f496e76616c6964206c6f747465727920636f6e747261637420616464726573732ea2646970667358221220844bdc982defb6398a95cd118f22eb9df81655f580777d2cbdf0575f647c6f3a64736f6c63430006090033",
    "sourcePath": "e:/Tellor-Lottery/TellorTimeConsole/TellorTimeConsole/TellorTimeContracts/TellorLottery.sol",
    "compiler": {
        "name": "solc",
        "version": "0.6.9+commit.3e3065ac"
    },
    "functionHashes": {
        "buyTicket(uint64[6])": "2182c4f0",
        "competitionMask()": "c89888c1",
        "competitionNumber()": "0c28f18d",
        "disputePeriod()": "5bf31d4d",
        "generateTicketIDs(uint64[6])": "407f8456",
        "getCurrentValue(uint256)": "3fcad964",
        "getDataBefore(uint256,uint256)": "66b44611",
        "getIndexForDataBefore(uint256,uint256)": "b73e4979",
        "getNewValueCountbyRequestId(uint256)": "46eee1c4",
        "getTimestampbyRequestIDandIndex(uint256,uint256)": "77fbb663",
        "isInDispute(uint256,uint256)": "3df0777b",
        "lotteryPool()": "2c831633",
        "mask()": "116134ee",
        "numberOfWinners(uint256)": "60724a9f",
        "prizePool(uint256)": "d636e6fa",
        "retrieveData(uint256,uint256)": "93fa4915",
        "senderAllownace()": "ed94a3c3",
        "ticketCost()": "1eecd934",
        "ticketNumber()": "c54c7da6",
        "updateLotto()": "9f0f37e1",
        "viewTickets(uint256)": "ab3eb60e",
        "winningNumbers(uint256)": "4e45f095"
    },
    "gasEstimates": {
        "creation": {
            "codeDepositCost": "2699800",
            "executionCost": "infinite",
            "totalCost": "infinite"
        },
        "external": {
            "buyTicket(uint64[6])": "infinite",
            "competitionMask()": "1086",
            "competitionNumber()": "1022",
            "disputePeriod()": "1131",
            "generateTicketIDs(uint64[6])": "infinite",
            "getCurrentValue(uint256)": "infinite",
            "getDataBefore(uint256,uint256)": "infinite",
            "getIndexForDataBefore(uint256,uint256)": "infinite",
            "getNewValueCountbyRequestId(uint256)": "infinite",
            "getTimestampbyRequestIDandIndex(uint256,uint256)": "infinite",
            "isInDispute(uint256,uint256)": "infinite",
            "lotteryPool()": "1149",
            "mask()": "1059",
            "numberOfWinners(uint256)": "infinite",
            "prizePool(uint256)": "1222",
            "retrieveData(uint256,uint256)": "infinite",
            "senderAllownace()": "infinite",
            "ticketCost()": "1066",
            "ticketNumber()": "1064",
            "updateLotto()": "infinite",
            "viewTickets(uint256)": "infinite",
            "winningNumbers(uint256)": "infinite"
        },
        "internal": {
            "distributeWinnings(uint256)": "infinite",
            "ticketValues(uint256,uint256,uint256,uint256)": "65542"
        }
    }
}