{
    "contractName": "TellorTime",
    "abi": [
        {
            "inputs": [
                {
                    "internalType": "address payable",
                    "name": "_tellorAddress",
                    "type": "address"
                },
                {
                    "internalType": "uint256",
                    "name": "_competitionStart",
                    "type": "uint256"
                }
            ],
            "stateMutability": "nonpayable",
            "type": "constructor"
        },
        {
            "anonymous": false,
            "inputs": [
                {
                    "indexed": false,
                    "internalType": "string",
                    "name": "error",
                    "type": "string"
                },
                {
                    "indexed": false,
                    "internalType": "uint256",
                    "name": "n",
                    "type": "uint256"
                }
            ],
            "name": "buyTicketError",
            "type": "event"
        },
        {
            "anonymous": false,
            "inputs": [
                {
                    "indexed": false,
                    "internalType": "uint256",
                    "name": "competitionNumber",
                    "type": "uint256"
                },
                {
                    "indexed": false,
                    "internalType": "address",
                    "name": "sender",
                    "type": "address"
                },
                {
                    "indexed": false,
                    "internalType": "uint256",
                    "name": "ticketNumber",
                    "type": "uint256"
                },
                {
                    "indexed": false,
                    "internalType": "uint64[6]",
                    "name": "numbers",
                    "type": "uint64[6]"
                },
                {
                    "indexed": false,
                    "internalType": "uint256",
                    "name": "prizePool",
                    "type": "uint256"
                }
            ],
            "name": "buyTicketSuccess",
            "type": "event"
        },
        {
            "anonymous": false,
            "inputs": [
                {
                    "indexed": false,
                    "internalType": "uint256",
                    "name": "jackpotPrizePool",
                    "type": "uint256"
                },
                {
                    "indexed": false,
                    "internalType": "uint256",
                    "name": "fiveMatchesPrizepool",
                    "type": "uint256"
                },
                {
                    "indexed": false,
                    "internalType": "uint256",
                    "name": "jackpotWinnerNum",
                    "type": "uint256"
                },
                {
                    "indexed": false,
                    "internalType": "uint256",
                    "name": "fiveMatchWinnerNum",
                    "type": "uint256"
                }
            ],
            "name": "distributeVariables",
            "type": "event"
        },
        {
            "anonymous": false,
            "inputs": [
                {
                    "indexed": false,
                    "internalType": "uint64[7]",
                    "name": "ticketIDs",
                    "type": "uint64[7]"
                }
            ],
            "name": "generatedIDs",
            "type": "event"
        },
        {
            "anonymous": false,
            "inputs": [
                {
                    "indexed": false,
                    "internalType": "uint256",
                    "name": "competitionNumber",
                    "type": "uint256"
                },
                {
                    "indexed": false,
                    "internalType": "uint64[7]",
                    "name": "winningIDs",
                    "type": "uint64[7]"
                },
                {
                    "indexed": false,
                    "internalType": "uint64[6]",
                    "name": "numbers",
                    "type": "uint64[6]"
                }
            ],
            "name": "lottoUpdate",
            "type": "event"
        },
        {
            "anonymous": false,
            "inputs": [
                {
                    "indexed": false,
                    "internalType": "address",
                    "name": "owner",
                    "type": "address"
                },
                {
                    "indexed": false,
                    "internalType": "uint256",
                    "name": "ticketNumber",
                    "type": "uint256"
                },
                {
                    "indexed": false,
                    "internalType": "uint64[6]",
                    "name": "numbers",
                    "type": "uint64[6]"
                }
            ],
            "name": "viewParticipantTickets",
            "type": "event"
        },
        {
            "anonymous": false,
            "inputs": [
                {
                    "indexed": false,
                    "internalType": "uint256",
                    "name": "competitionNumber",
                    "type": "uint256"
                },
                {
                    "indexed": false,
                    "internalType": "address",
                    "name": "winner",
                    "type": "address"
                },
                {
                    "indexed": false,
                    "internalType": "uint256",
                    "name": "prize",
                    "type": "uint256"
                }
            ],
            "name": "winningsDistributed",
            "type": "event"
        },
        {
            "inputs": [
                {
                    "internalType": "uint64[6]",
                    "name": "_numbers",
                    "type": "uint64[6]"
                }
            ],
            "name": "buyTicket",
            "outputs": [],
            "stateMutability": "nonpayable",
            "type": "function"
        },
        {
            "inputs": [],
            "name": "competitionMask",
            "outputs": [
                {
                    "internalType": "uint256",
                    "name": "",
                    "type": "uint256"
                }
            ],
            "stateMutability": "view",
            "type": "function"
        },
        {
            "inputs": [],
            "name": "competitionNumber",
            "outputs": [
                {
                    "internalType": "uint256",
                    "name": "",
                    "type": "uint256"
                }
            ],
            "stateMutability": "view",
            "type": "function"
        },
        {
            "inputs": [
                {
                    "internalType": "uint256",
                    "name": "_competition",
                    "type": "uint256"
                }
            ],
            "name": "distributeWinnings",
            "outputs": [],
            "stateMutability": "nonpayable",
            "type": "function"
        },
        {
            "inputs": [
                {
                    "internalType": "uint64[6]",
                    "name": "_numbers",
                    "type": "uint64[6]"
                }
            ],
            "name": "generateTicketIDs",
            "outputs": [
                {
                    "internalType": "uint64[7]",
                    "name": "ticketIDs",
                    "type": "uint64[7]"
                }
            ],
            "stateMutability": "nonpayable",
            "type": "function"
        },
        {
            "inputs": [
                {
                    "internalType": "uint256",
                    "name": "_requestId",
                    "type": "uint256"
                }
            ],
            "name": "getCurrentValue",
            "outputs": [
                {
                    "internalType": "bool",
                    "name": "ifRetrieve",
                    "type": "bool"
                },
                {
                    "internalType": "uint256",
                    "name": "value",
                    "type": "uint256"
                },
                {
                    "internalType": "uint256",
                    "name": "_timestampRetrieved",
                    "type": "uint256"
                }
            ],
            "stateMutability": "view",
            "type": "function"
        },
        {
            "inputs": [
                {
                    "internalType": "uint256",
                    "name": "_requestId",
                    "type": "uint256"
                },
                {
                    "internalType": "uint256",
                    "name": "_timestamp",
                    "type": "uint256"
                }
            ],
            "name": "getDataBefore",
            "outputs": [
                {
                    "internalType": "bool",
                    "name": "_ifRetrieve",
                    "type": "bool"
                },
                {
                    "internalType": "uint256",
                    "name": "_value",
                    "type": "uint256"
                },
                {
                    "internalType": "uint256",
                    "name": "_timestampRetrieved",
                    "type": "uint256"
                }
            ],
            "stateMutability": "nonpayable",
            "type": "function"
        },
        {
            "inputs": [
                {
                    "internalType": "uint256",
                    "name": "_requestId",
                    "type": "uint256"
                },
                {
                    "internalType": "uint256",
                    "name": "_timestamp",
                    "type": "uint256"
                }
            ],
            "name": "getIndexForDataBefore",
            "outputs": [
                {
                    "internalType": "bool",
                    "name": "found",
                    "type": "bool"
                },
                {
                    "internalType": "uint256",
                    "name": "index",
                    "type": "uint256"
                }
            ],
            "stateMutability": "view",
            "type": "function"
        },
        {
            "inputs": [
                {
                    "internalType": "uint256",
                    "name": "_requestId",
                    "type": "uint256"
                }
            ],
            "name": "getNewValueCountbyRequestId",
            "outputs": [
                {
                    "internalType": "uint256",
                    "name": "",
                    "type": "uint256"
                }
            ],
            "stateMutability": "view",
            "type": "function"
        },
        {
            "inputs": [
                {
                    "internalType": "uint256",
                    "name": "_requestId",
                    "type": "uint256"
                },
                {
                    "internalType": "uint256",
                    "name": "_index",
                    "type": "uint256"
                }
            ],
            "name": "getTimestampbyRequestIDandIndex",
            "outputs": [
                {
                    "internalType": "uint256",
                    "name": "",
                    "type": "uint256"
                }
            ],
            "stateMutability": "view",
            "type": "function"
        },
        {
            "inputs": [
                {
                    "internalType": "uint256",
                    "name": "_requestId",
                    "type": "uint256"
                },
                {
                    "internalType": "uint256",
                    "name": "_timestamp",
                    "type": "uint256"
                }
            ],
            "name": "isInDispute",
            "outputs": [
                {
                    "internalType": "bool",
                    "name": "",
                    "type": "bool"
                }
            ],
            "stateMutability": "view",
            "type": "function"
        },
        {
            "inputs": [],
            "name": "mask",
            "outputs": [
                {
                    "internalType": "uint8",
                    "name": "",
                    "type": "uint8"
                }
            ],
            "stateMutability": "view",
            "type": "function"
        },
        {
            "inputs": [
                {
                    "internalType": "uint256",
                    "name": "_competition",
                    "type": "uint256"
                }
            ],
            "name": "prizePool",
            "outputs": [
                {
                    "internalType": "uint256",
                    "name": "prize",
                    "type": "uint256"
                }
            ],
            "stateMutability": "view",
            "type": "function"
        },
        {
            "inputs": [
                {
                    "internalType": "uint256",
                    "name": "_requestId",
                    "type": "uint256"
                },
                {
                    "internalType": "uint256",
                    "name": "_timestamp",
                    "type": "uint256"
                }
            ],
            "name": "retrieveData",
            "outputs": [
                {
                    "internalType": "uint256",
                    "name": "",
                    "type": "uint256"
                }
            ],
            "stateMutability": "view",
            "type": "function"
        },
        {
            "inputs": [],
            "name": "ticketCost",
            "outputs": [
                {
                    "internalType": "uint256",
                    "name": "",
                    "type": "uint256"
                }
            ],
            "stateMutability": "view",
            "type": "function"
        },
        {
            "inputs": [],
            "name": "ticketNumber",
            "outputs": [
                {
                    "internalType": "uint256",
                    "name": "",
                    "type": "uint256"
                }
            ],
            "stateMutability": "view",
            "type": "function"
        },
        {
            "inputs": [],
            "name": "updateLotto",
            "outputs": [],
            "stateMutability": "nonpayable",
            "type": "function"
        },
        {
            "inputs": [
                {
                    "internalType": "uint256",
                    "name": "_competition",
                    "type": "uint256"
                }
            ],
            "name": "viewTickets",
            "outputs": [],
            "stateMutability": "nonpayable",
            "type": "function"
        },
        {
            "inputs": [
                {
                    "internalType": "uint256",
                    "name": "_competition",
                    "type": "uint256"
                }
            ],
            "name": "winningNumbers",
            "outputs": [
                {
                    "internalType": "uint64[6]",
                    "name": "numbers",
                    "type": "uint64[6]"
                }
            ],
            "stateMutability": "view",
            "type": "function"
        }
    ],
    "bytecode": "6080604052604d600155670de0b6b3a76400006005556006805460ff1916603f17905561ffff60075534801561003457600080fd5b5060405161253d38038061253d8339818101604052604081101561005757600080fd5b508051602090910151600080546001600160a01b0319166001600160a01b039093169290921782556003556124ab90819061009290396000f3fe608060405234801561001057600080fd5b50600436106101215760003560e01c80634e45f095116100ad578063ab3eb60e11610071578063ab3eb60e14610395578063b73e4979146103b2578063c54c7da6146103f0578063c89888c1146103f8578063d636e6fa1461040057610121565b80634e45f095146102f257806366b446111461032457806377fbb6631461034757806393fa49151461036a5780639f0f37e11461038d57610121565b80633df0777b116100f45780633df0777b146101ba5780633fcad964146101f1578063407f84561461022e5780634544c48c146102b857806346eee1c4146102d557610121565b80630c28f18d14610126578063116134ee146101405780631eecd9341461015e5780632182c4f014610166575b600080fd5b61012e61041d565b60408051918252519081900360200190f35b610148610423565b6040805160ff9092168252519081900360200190f35b61012e61042c565b6101b8600480360360c081101561017c57600080fd5b810190808060c0019060068060200260405190810160405280929190826006602002808284376000920191909152509194506104329350505050565b005b6101dd600480360360408110156101d057600080fd5b5080359060200135610a54565b604080519115158252519081900360200190f35b61020e6004803603602081101561020757600080fd5b5035610adb565b604080519315158452602084019290925282820152519081900360600190f35b610280600480360360c081101561024457600080fd5b810190808060c001906006806020026040519081016040528092919082600660200280828437600092019190915250919450610c8f9350505050565b604051808260e080838360005b838110156102a557818101518382015260200161028d565b5050505090500191505060405180910390f35b6101b8600480360360208110156102ce57600080fd5b5035611050565b61012e600480360360208110156102eb57600080fd5b503561182c565b61030f6004803603602081101561030857600080fd5b50356118ab565b60405181518152808260c0808383602061028d565b61020e6004803603604081101561033a57600080fd5b5080359060200135611923565b61012e6004803603604081101561035d57600080fd5b5080359060200135611a7d565b61012e6004803603604081101561038057600080fd5b5080359060200135611ad1565b6101b8611b25565b6101b8600480360360208110156103ab57600080fd5b5035611dc9565b6103d5600480360360408110156103c857600080fd5b5080359060200135611f67565b60408051921515835260208301919091528051918290030190f35b61012e612327565b61012e61232d565b61012e6004803603602081101561041657600080fd5b5035612333565b60035481565b60065460ff1681565b60055481565b60055460005460408051636eb1769f60e11b815233600482015230602482015290516001600160a01b039092169163dd62ed3e91604480820192602092909190829003018186803b15801561048657600080fd5b505afa15801561049a573d6000803e3d6000fd5b505050506040513d60208110156104b057600080fd5b50511061096f576000805b60068260ff1610156105cf57806001600160401b0316838360ff16600681106104e057fe5b60200201516001600160401b03161180156105175750603d838360ff166006811061050757fe5b60200201516001600160401b0316105b6105ae577f8f02aee52ff313f0c282db71d8e185aaa783491b69b111e5074b0d58c7bf8768838360ff166006811061054b57fe5b60200201516040518080602001836001600160401b03168152602001828103825260178152602001807f496e76616c6964207469636b6574206e756d626572732e0000000000000000008152506020019250505060405180910390a15050610a51565b828260ff16600681106105bd57fe5b602002015160019092019190506104bb565b60008054600554604080516323b872dd60e01b81523360048201523060248201526044810192909252516001600160a01b03909216926323b872dd926064808401936020939083900390910190829087803b15801561062d57600080fd5b505af1158015610641573d6000803e3d6000fd5b505050506040513d602081101561065757600080fd5b50511561096857600554600354600090815260026020526040902060040180549091019055610684612348565b61068d84610c8f565b9050610697612366565b50604080516060810182523380825260048054600190810180835560208086019182528587018b81526003546000908152600280845289822097825260089097018352978820805480860182559089529190972086519190940290930180546001600160a01b0319166001600160a01b039094169390931783555190820155925191928392909161072d9190830190600661238a565b505050600093505b60078460ff1610156107ef576003546000908152600260205260408120600601908360ff87166007811061076557fe5b602090810291909101516001600160401b03168252818101929092526040908101600090812080546001808201835591835291849020855160049093020180546001600160a01b0319166001600160a01b0390931692909217825592840151928101929092558201518291906107e1906002830190600661238a565b505060019094019350610735565b600354600081815260026020818152604080842087516001600160401b0390811686526006909101808452828620878752948452885190911685529091529091205481547f2ce02ce4f210310aabb3eb2da1368a91c0cadf0e1c735d29168a175474746e869392916000190190811061086457fe5b6000918252602080832060049290920290910154600354808452600280845260408086208a516001600160401b03908116885260069091018087528288209488529286528a511686529352919092205481546001600160a01b03909316926000199091019081106108d157fe5b906000526020600020906004020160010154886002600060035481526020019081526020016000206004015460405180868152602001856001600160a01b03166001600160a01b0316815260200184815260200183600660200280838360005b83811015610949578181015183820152602001610931565b505050509050018281526020019550505050505060405180910390a150505b5050610a51565b60005460408051636eb1769f60e11b815233600482015230602482015290517f8f02aee52ff313f0c282db71d8e185aaa783491b69b111e5074b0d58c7bf8768926001600160a01b03169163dd62ed3e916044808301926020929190829003018186803b1580156109df57600080fd5b505afa1580156109f3573d6000803e3d6000fd5b505050506040513d6020811015610a0957600080fd5b5051604080516020810192909252808252601a828201527f496e76616c696420636f6e747261637420616c6c6f77616e63650000000000006060830152519081900360800190a15b50565b6000805460408051633df0777b60e01b8152600481018690526024810185905290516001600160a01b0390921691633df0777b91604480820192602092909190829003018186803b158015610aa857600080fd5b505afa158015610abc573d6000803e3d6000fd5b505050506040513d6020811015610ad257600080fd5b50519392505050565b60008054604080516311bbb87160e21b81526004810185905290518392839283926001600160a01b03909216916346eee1c491602480820192602092909190829003018186803b158015610b2e57600080fd5b505afa158015610b42573d6000803e3d6000fd5b505050506040513d6020811015610b5857600080fd5b505160008054604080516377fbb66360e01b8152600481018a905260001985016024820152905193945091926001600160a01b03909116916377fbb663916044808301926020929190829003018186803b158015610bb557600080fd5b505afa158015610bc9573d6000803e3d6000fd5b505050506040513d6020811015610bdf57600080fd5b505160008054604080516393fa491560e01b8152600481018b905260248101859052905193945091926001600160a01b03909116916393fa4915916044808301926020929190829003018186803b158015610c3957600080fd5b505afa158015610c4d573d6000803e3d6000fd5b505050506040513d6020811015610c6357600080fd5b505190508015610c7c576001955093509150610c889050565b50600094508493509150505b9193909250565b610c97612348565b610c9f612348565b8260056020020151600684600460200201516001600160401b0316901b600c85600360200201516001600160401b0316901b601286600260200201516001600160401b0316901b601887600160200201516001600160401b0316901b601e88600060200201516001600160401b0316901b01010101018160006001600160401b0390921660209290920201528260046020020151600684600360200201516001600160401b0316901b600c85600260200201516001600160401b0316901b601286600160200201516001600160401b0316901b601887600060200201516001600160401b0316901b010101018160016001600160401b0390921660209290920201528260056020020151600684600360200201516001600160401b0316901b600c85600260200201516001600160401b0316901b601286600160200201516001600160401b0316901b601887600060200201516001600160401b0316901b010101018160026001600160401b0390921660209290920201528260056020020151600684600460200201516001600160401b0316901b600c85600260200201516001600160401b0316901b601286600160200201516001600160401b0316901b601887600060200201516001600160401b0316901b010101018160036001600160401b0390921660209290920201528260056020020151600684600460200201516001600160401b0316901b600c85600360200201516001600160401b0316901b601286600160200201516001600160401b0316901b601887600060200201516001600160401b0316901b010101018160046001600160401b0390921660209290920201528260056020020151600684600460200201516001600160401b0316901b600c85600360200201516001600160401b0316901b601286600260200201516001600160401b0316901b601887600060200201516001600160401b0316901b010101018160056001600160401b0390921660209290920201528260056020020151600684600460200201516001600160401b0316901b600c85600360200201516001600160401b0316901b601286600260200201516001600160401b0316901b601887600160200201516001600160401b0316901b010101018160066001600160401b0390921660209290920201526040517f31aa2513a9ebcd5fa8a7d17ea8ce08f827903b2b3bce48ee104f7b2697d210e0908290808260e080838360005b83811015611038578181015183820152602001611020565b5050505090500191505060405180910390a192915050565b60008181526002602052604090206005015460ff16158015611073575060035481105b15610a51576000808060015b60008590526002602052600760ff8216101561111957600085815260026020818152604080842080840180546001600160401b031686526006909101808452918520548a86529390925291929060ff8516600781106110da57fe5b60048104919091015460039091166008026101000a90046001600160401b0316815260208101919091526040016000205403929092019160010161107f565b6000858152600260208181526040808420928301546001600160401b0316845260069092019052902054611183576000858152600260205260409020600401546064906003546000908152600260205260409020600401805492909104603c0290910190556111ca565b6000858152600260208181526040808420808401546001600160401b0316855260068101835290842054938990529190526004015460649004603c02816111c657fe5b0493505b8261120b5760008581526002602052604090206004015460649060035460009081526002602052604090206004018054929091046028029091019055611231565b6000858152600260205260409020600401548390606490046028028161122d57fe5b0491505b6000858152600260208181526040808420928301546001600160401b0316845260069092018152918190205481518781529283018590528282015260608201859052517f2126f4a5cda41458d4e1b58b0055c4924a00e1a93519c03b78683a8a6dcbbffb9181900360800190a15060005b6000858152600260208181526040808420928301546001600160401b031684526006909201905290205460ff821610156114d7576000858152600260208181526040808420928301546001600160401b031684526006830190915282208054600193600790930192919060ff861690811061131957fe5b600091825260208083206004929092029091016001015483528281019390935260409182018120805460ff19169415159490941790935582548884526002808452828520908101546001600160401b0316855260060190925290912080546001600160a01b039092169163a9059cbb919060ff851690811061139757fe5b906000526020600020906004020160000160009054906101000a90046001600160a01b0316866040518363ffffffff1660e01b815260040180836001600160a01b03166001600160a01b0316815260200182815260200192505050602060405180830381600087803b15801561140c57600080fd5b505af1158015611420573d6000803e3d6000fd5b505050506040513d602081101561143657600080fd5b50506000858152600260208181526040808420928301546001600160401b0316845260069092019052902080547fb0da801e1a19dfdb65168b670698d77f77bfed9bbff0536030cb63893937056d91879160ff851690811061149457fe5b600091825260209182902060049091020154604080519384526001600160a01b0390911691830191909152818101879052519081900360600190a16001016112a2565b5060015b60008590526002602052600760ff821610156118095760005b600086815260026020819052604082206006810192910160ff85166007811061151957fe5b60048104919091015460039091166008026101000a90046001600160401b0316815260208101919091526040016000205460ff821610156118005760008681526002602081905260408220600780820193926006830192849291019060ff881690811061158257fe5b600491828204019190066008029054906101000a90046001600160401b03166001600160401b03166001600160401b031681526020019081526020016000208360ff16815481106115cf57fe5b906000526020600020906004020160010154815260200190815260200160002060009054906101000a900460ff166117f8576000805487825260026020819052604083206001600160a01b039092169263a9059cbb9260068101920160ff87166007811061163957fe5b600491828204019190066008029054906101000a90046001600160401b03166001600160401b03166001600160401b031681526020019081526020016000208360ff168154811061168657fe5b906000526020600020906004020160000160009054906101000a90046001600160a01b0316856040518363ffffffff1660e01b815260040180836001600160a01b03166001600160a01b0316815260200182815260200192505050602060405180830381600087803b1580156116fb57600080fd5b505af115801561170f573d6000803e3d6000fd5b505050506040513d602081101561172557600080fd5b5050600086815260026020819052604082207fb0da801e1a19dfdb65168b670698d77f77bfed9bbff0536030cb63893937056d92899260068301920160ff87166007811061176f57fe5b600491828204019190066008029054906101000a90046001600160401b03166001600160401b03166001600160401b031681526020019081526020016000208360ff16815481106117bc57fe5b600091825260209182902060049091020154604080519384526001600160a01b0390911691830191909152818101869052519081900360600190a15b6001016114f4565b506001016114db565b5050506000828152600260205260409020600501805460ff191660011790555050565b60008054604080516311bbb87160e21b81526004810185905290516001600160a01b03909216916346eee1c491602480820192602092909190829003018186803b15801561187957600080fd5b505afa15801561188d573d6000803e3d6000fd5b505050506040513d60208110156118a357600080fd5b505192915050565b6118b361242f565b600082815260026020526040808220815160c08101928390529290916006918390855b82829054906101000a90046001600160401b03166001600160401b0316815260200190600801906020826007010492830192600103820291508084116118d6575094979650505050505050565b60008060008060006119358787611f67565b9150915081611950575060009350839250829150611a769050565b60008054604080516377fbb66360e01b8152600481018b90526024810185905290516001600160a01b03909216916377fbb66391604480820192602092909190829003018186803b1580156119a457600080fd5b505afa1580156119b8573d6000803e3d6000fd5b505050506040513d60208110156119ce57600080fd5b5051600054604080516393fa491560e01b8152600481018c90526024810184905290519293506001600160a01b03909116916393fa491591604480820192602092909190829003018186803b158015611a2657600080fd5b505afa158015611a3a573d6000803e3d6000fd5b505050506040513d6020811015611a5057600080fd5b505194508415611a6857600195509250611a76915050565b506000945084935083925050505b9250925092565b60008054604080516377fbb66360e01b8152600481018690526024810185905290516001600160a01b03909216916377fbb66391604480820192602092909190829003018186803b158015610aa857600080fd5b60008054604080516393fa491560e01b8152600481018690526024810185905290516001600160a01b03909216916393fa491591604480820192602092909190829003018186803b158015610aa857600080fd5b6000806000611b35600154610adb565b91945090925090508215611dc45760075460035490821690811415611dc2576040805160c08101825260008082526020808301829052828401829052606083018290526080830182905260a0830182905260035482526002905291909120601084901c91611ba59190600661238a565b5060055b60008160000b12611c2a5760068054600354600090815260026020526040812091851660ff16929084900b908110611bdd57fe5b600491828204019190066008026101000a8154816001600160401b0302191690836001600160401b031602179055506006826001600160401b0316901c9150808060019003915050611ba9565b600354600090815260026020526040808220815160c0810192839052611c9f9390926006918390855b82829054906101000a90046001600160401b03166001600160401b031681526020019060080190602082600701049283019260010382029150808411611c535790505050505050610c8f565b6003546000908152600260208190526040909120611cc192910190600761238a565b50600354600090815260026020818152604080842090518781527e10bdad21d1b700ce023f60fafeb1503906bb1b3fa5584ea6f36bfb1bb9737e948894830193610100830191859184015b82829054906101000a90046001600160401b03166001600160401b031681526020019060080190602082600701049283019260010382029150808411611d0c5750505060c081019083906000905b82829054906101000a90046001600160401b03166001600160401b031681526020019060080190602082600701049283019260010382029150808411611d5a5790505050935050505060405180910390a16003805460018101909155611dbf90611050565b50505b505b505050565b60005b600082815260026020908152604080832033845260080190915290205460ff82161015611f63576000828152600260209081526040808320338452600801909152902080547f8f6b09c1d2a3de9257df82c40c56d961149ac433253458bb01ef24b05272e03c919060ff8416908110611e4157fe5b60009182526020808320600490920290910154858352600282526040808420338552600801909252912080546001600160a01b039092169160ff8516908110611e8657fe5b60009182526020808320600160049093020191909101548683526002825260408084203385526008019092529120805460ff8616908110611ec357fe5b906000526020600020906004020160020160405180846001600160a01b03166001600160a01b031681526020018381526020018260068015611f4c576020028201916000905b82829054906101000a90046001600160401b03166001600160401b031681526020019060080190602082600701049283019260010382029150808411611f095790505b5050935050505060405180910390a1600101611dcc565b5050565b60008054604080516311bbb87160e21b8152600481018690529051839283926001600160a01b03909116916346eee1c491602480820192602092909190829003018186803b158015611fb857600080fd5b505afa158015611fcc573d6000803e3d6000fd5b505050506040513d6020811015611fe257600080fd5b5051905080156123175760008054604080516377fbb66360e01b815260048101899052602481018490529051839260001986019284926001600160a01b03909216916377fbb66391604480820192602092909190829003018186803b15801561204a57600080fd5b505afa15801561205e573d6000803e3d6000fd5b505050506040513d602081101561207457600080fd5b505190508781106120915750600095508594506123209350505050565b600054604080516377fbb66360e01b8152600481018c90526024810185905290516001600160a01b03909216916377fbb66391604480820192602092909190829003018186803b1580156120e457600080fd5b505afa1580156120f8573d6000803e3d6000fd5b505050506040513d602081101561210e57600080fd5b505190508781101561212a575060019550935061232092505050565b600054604080516377fbb66360e01b8152600481018c905260028686030486016001016024820181905291519196506001600160a01b03909216916377fbb663916044808301926020929190829003018186803b15801561218a57600080fd5b505afa15801561219e573d6000803e3d6000fd5b505050506040513d60208110156121b457600080fd5b50519050878110156122695760008054604080516377fbb66360e01b8152600481018d905260018801602482015290516001600160a01b03909216916377fbb66391604480820192602092909190829003018186803b15801561221657600080fd5b505afa15801561222a573d6000803e3d6000fd5b505050506040513d602081101561224057600080fd5b5051905088811061225d5760018597509750505050505050612320565b84600101935050612312565b60008054604080516377fbb66360e01b8152600481018d90526000198801602482015290516001600160a01b03909216916377fbb66391604480820192602092909190829003018186803b1580156122c057600080fd5b505afa1580156122d4573d6000803e3d6000fd5b505050506040513d60208110156122ea57600080fd5b505190508881101561230a57600180860397509750505050505050612320565b600185039250505b61212a565b50600091508190505b9250929050565b60045481565b60075481565b60009081526002602052604090206004015490565b6040518060e001604052806007906020820280368337509192915050565b604080516060810182526000808252602082015290810161238561242f565b905290565b60028301918390821561241f5791602002820160005b838211156123ea57835183826101000a8154816001600160401b0302191690836001600160401b0316021790555092602001926008016020816007010492830192600103026123a0565b801561241d5782816101000a8154906001600160401b0302191690556008016020816007010492830192600103026123ea565b505b5061242b92915061244d565b5090565b6040518060c001604052806006906020820280368337509192915050565b61247291905b8082111561242b57805467ffffffffffffffff19168155600101612453565b9056fea26469706673582212209ade1c2b64865d5b66a5c1bd66935d8036ee98168028d59088e48ee7558cdc7f64736f6c63430006090033",
    "sourcePath": "e:/TellorTimeConsole/TellorTimeConsole/TellorTimeContracts/TellorTime.sol",
    "compiler": {
        "name": "solc",
        "version": "0.6.9+commit.3e3065ac"
    },
    "functionHashes": {
        "buyTicket(uint64[6])": "2182c4f0",
        "competitionMask()": "c89888c1",
        "competitionNumber()": "0c28f18d",
        "distributeWinnings(uint256)": "4544c48c",
        "generateTicketIDs(uint64[6])": "407f8456",
        "getCurrentValue(uint256)": "3fcad964",
        "getDataBefore(uint256,uint256)": "66b44611",
        "getIndexForDataBefore(uint256,uint256)": "b73e4979",
        "getNewValueCountbyRequestId(uint256)": "46eee1c4",
        "getTimestampbyRequestIDandIndex(uint256,uint256)": "77fbb663",
        "isInDispute(uint256,uint256)": "3df0777b",
        "mask()": "116134ee",
        "prizePool(uint256)": "d636e6fa",
        "retrieveData(uint256,uint256)": "93fa4915",
        "ticketCost()": "1eecd934",
        "ticketNumber()": "c54c7da6",
        "updateLotto()": "9f0f37e1",
        "viewTickets(uint256)": "ab3eb60e",
        "winningNumbers(uint256)": "4e45f095"
    },
    "gasEstimates": {
        "creation": {
            "codeDepositCost": "1877400",
            "executionCost": "infinite",
            "totalCost": "infinite"
        },
        "external": {
            "buyTicket(uint64[6])": "infinite",
            "competitionMask()": "1086",
            "competitionNumber()": "1022",
            "distributeWinnings(uint256)": "infinite",
            "generateTicketIDs(uint64[6])": "infinite",
            "getCurrentValue(uint256)": "infinite",
            "getDataBefore(uint256,uint256)": "infinite",
            "getIndexForDataBefore(uint256,uint256)": "infinite",
            "getNewValueCountbyRequestId(uint256)": "infinite",
            "getTimestampbyRequestIDandIndex(uint256,uint256)": "infinite",
            "isInDispute(uint256,uint256)": "infinite",
            "mask()": "1059",
            "prizePool(uint256)": "1222",
            "retrieveData(uint256,uint256)": "infinite",
            "ticketCost()": "1066",
            "ticketNumber()": "1064",
            "updateLotto()": "infinite",
            "viewTickets(uint256)": "infinite",
            "winningNumbers(uint256)": "infinite"
        }
    }
}